:020000040800F2
:10000000080A0020DD010008232900080D2500084A
:1000100021290008A70800083F3900080000000057
:100020000000000000000000000000002729000878
:10003000A908000800000000252900082929000857
:10004000F7010008F7010008F7010008F7010008B0
:10005000F7010008F7010008F7010008F7010008A0
:10006000F7010008F7010008F7010008F701000890
:10007000F7010008F7010008F7010008F701000880
:10008000F7010008F7010008F7010008F701000870
:10009000F7010008F7010008F7010008F701000860
:1000A000F7010008F7010008F7010008F701000850
:1000B000F7010008452D0008F7010008F7010008C6
:1000C000F7010008F7010008F7010008F701000830
:1000D000F7010008F7010008F7010008F701000820
:1000E000F7010008F7010008F7010008F701000810
:1000F000F7010008F7010008F7010008F701000800
:10010000F7010008F7010008ED300008F7010008CA
:10011000F7010008F7010008F7010008F7010008DF
:10012000F7010008F7010008F7010008F7010008CF
:10013000F7010008F7010008F7010008F7010008BF
:10014000F7010008F7010008F7010008F7010008AF
:10015000F7010008F7010008F7010008F70100089F
:10016000F7010008F7010008F7010008F70100088F
:10017000F7010008F7010008F7010008F70100087F
:10018000F7010008F7010008F7010008F70100086F
:10019000F7010008F7010008F7010008F70100085F
:1001A000F7010008F7010008F7010008F70100084F
:1001B000F7010008F7010008F7010008F70100083F
:1001C000F7010008F7010008DFF80CD000F02EFB63
:1001D0000048004761460008080A0020064880479A
:1001E00006480047FEE7FEE7FEE7FEE7FEE7FEE71C
:1001F000FEE7FEE7FEE7FEE7CD290008C90100089B
:100200002DE9F05F0546002092469B46884606464B
:10021000814640241BE0284641464746224600F0DE
:100220004EFA53465A46C01A914110D31146184609
:10023000224600F035FA2D1A67EB01084F46224698
:100240000120002100F02CFA17EB00094E41201E7E
:10025000A4F10104DFDC484631462A464346BDE8A6
:10026000F09FD2B201E000F8012B491EFBD270478B
:100270000022F6E710B513460A4604461946FFF772
:10028000F0FF204610BD2DE9FE4F804681EA0300B5
:10029000C00F0C46009021F0004123F00045B8EB60
:1002A0000200A94105D24046214690461C460B4615
:1002B000024623F00040104347D0270DC7F30A0041
:1002C000C3F30A510290401A019040286BDAC3F33D
:1002D000130040F4801B0098924620B10023D2EB1B
:1002E000030A63EB0B0B01985946C0F140025046DC
:1002F00000F0D6F906460D4650465946019A00F0E0
:10030000EEF910EB08006141002487EA115284EAFB
:10031000E7731A4340D0009A62B3019A012A4FEA68
:10032000075215DC001B61EB02014FF0004202EAAC
:100330000752CDE90042001C41F5801132462B46A0
:1003400000F025FA03B0BDE8F08F40462146F9E7FA
:10035000001B61EB0201001C41F5801300185B419A
:100360002018A2F5001747EB030140EAD570B61933
:100370006D4111E06D084FEA360645EAC0754FEA57
:100380000752001B61EB0201001C41F58011490876
:100390004FEA30000019514132462B4603B0BDE808
:1003A000F04F00F0E5B90098012240000023D0EBA7
:1003B000020263EBE073009821464FEAE074B8EB69
:1003C000000061EB0401E9E783F000435BE781F0A3
:1003D000004158E72DE9FE4F81EA030404F0004490
:1003E00021F0004100944FF0000B23F0004350EA4D
:1003F00001045ED052EA03045BD0C3F30A54C1F394
:100400000A552C44A4F2F3340194A0FB0254C1F326
:10041000130141F48011C3F3130343F4801301FB70
:10042000024400FB034E840A970A44EA815447EAD7
:100430008357A4FB076802958D0A05FB07854FEAE1
:10044000932C04FB0C542705029D4FEA065847EAFB
:100450001637B5EB08056EEB070C870E920E47EAD0
:10046000811742EA8312A7FB0201B6EB0B0164EB92
:1004700000042B0D43EA0C335E1844EB1C50DA46A3
:100480005146E7FB0201C5F313044FEA0B3343EA7D
:1004900014534FEA0432019C43EA0603A4F10C040E
:1004A0000294009CCDE900B400F071F903B0BDE8FE
:1004B000F08F00200146F9E72DE9F04D81EA0304B1
:1004C00004F0004B21F0004514464FF0000A23F0E1
:1004D000004150EA050220D054EA01021DD0C5F3C4
:1004E0000A570246C5F31303C1F31300C1F30A56BA
:1004F00040F4801543F48013A7EB0608101BD64682
:1005000008F2FD3873EB050002D308F1010801E0A1
:1005100092185B41B8F1000F03DA00200146BDE8F4
:10052000F08D00204FF48011064684460EE0171B24
:1005300073EB050705D3121B63EB050306434CEA77
:10054000010C49084FEA300092185B4150EA01075C
:10055000EDD152EA030012D082EA040083EA0501D9
:10056000084305D0101BAB4106D20122002306E050
:1005700000224FF0004302E06FF0010253101AEB2B
:1005800006004CEB085110EB0A0041EB0B01BDE8F3
:10059000F04D00F0EDB80EB5C10F80EAE0700844F0
:1005A000CA07002140F233438DE80E000A460B468D
:1005B00000F0EDF803B000BD0EB540F233410291FA
:1005C0000021CDE900110A460B4600F0E0F803B027
:1005D00000BD70B5C1F30A5201F000450024C1F31B
:1005E000130140F2FF3341F480119A4201DA0020F6
:1005F00070BD40F233439A42A2F2334203DC5242CE
:1006000000F05DF800E090402C43F1D0404270BD16
:1006100000F0004230F000400AD0C10D01F56071D9
:10062000C0F3160042EA0151C20840071143704767
:10063000002001467047000030B5041E71F100042F
:1006400004DB4FF00044404264EB0101141E73F1DF
:10065000000405DB1C464FF00043524263EB0403E9
:10066000994208BF904230BD01F0004330B421F000
:10067000004150EA010206D00A0DA2F56072C1F3F2
:100680001301002A02DC30BC00207047440F44EA0A
:10069000C104C100E01830BC00EBC25000F031B81A
:1006A000202A04DB203A00FA02F100207047914032
:1006B000C2F1200320FA03F3194390407047202A27
:1006C00004DB203A21FA02F00021704721FA02F3FC
:1006D000D040C2F120029140084319467047202AB9
:1006E00006DBCB17203A41FA02F043EAE07306E05A
:1006F00041FA02F3D040C2F120029140084319466A
:1007000070470029A8BF7047401C490008BF20F06F
:100710000100704710B4B0FA80FC00FA0CF050EA07
:10072000010404BF10BC704749B1CCF1200421FA88
:1007300004F411FA0CF118BF012121430843A3EB83
:100740000C01CB1D4FEA00614FEA102042BF002090
:1007500010BC704700EBC35010440029A4BF10BC6C
:100760007047401C490008BF20F0010010BC7047D2
:1007700010B5141E73F1000408DA401C41F10001A9
:1007800092185B411A4301D120F0010010BD2DE900
:10079000F04D92469B4611B1B1FA81F202E0B0FAF7
:1007A00080F220329046FFF77BFF04460F4640EA76
:1007B0000A0041EA0B0153465A46084313D011463A
:1007C00053EA010019D0C8F140025046FFF777FF05
:1007D00005460E46504659464246FFF761FF08431C
:1007E00005D0012004E020463946BDE8F08D002008
:1007F000054346EAE0762C4337430A986305E40A4A
:10080000A0EB08000022FD0A44EA47540A3002D552
:1008100000200146E9E7010510196941DDE90845B5
:1008200000196941BDE8F04DA2E70000064C074DF4
:1008300006E0E06840F0010394E8070098471034B0
:10084000AC42F6D3FFF7C4FC884B0008A84B000865
:1008500070B58C1810F8015B15F0070301D110F882
:10086000013B2A1106D110F8012B03E010F8016BAF
:1008700001F8016B5B1EF9D12B0705D40023521E32
:100880000DD401F8013BFAE710F8013BCB1A921C9A
:1008900003E013F8015B01F8015B521EF9D5A14298
:1008A000D8D3002070BDFEE7704772B6FEE70000A7
:1008B00070B502780E490F4B62B9012202704D6A81
:1008C000002440F27126DA68724305EB021282605E
:1008D000C460426040F27124826842604D6AD96807
:1008E000614305EB01118A1AC0E9021270BD0000D4
:1008F00000100040100100202DE9F84FDFF80CB285
:10090000012403254FF00F0A00220BF1040E00BF53
:100910000B6804FA02F63340B34278D10F7907F03E
:100920000307012F01D0022F1AD187684FEA42092D
:10093000D1F80CC005FA09F827EA08070CFA09FCF7
:100940004CEA070CC0F808C0476891F804C0B743E8
:10095000CCF3001C0CFA02FC4CEA070CC0F804C0F3
:100960000E79F643B6070BD0C6684FEA420C8F6883
:1009700005FA0CF826EA080607FA0CF73743C760B1
:100980000E7906F00306022E12D1D6084FEA4278FD
:1009900000EB860600960F69D6F820904FEAD866DD
:1009A0000AFA06FCB74029EA0C063743009E376274
:1009B0000F7906684FEA420C07F0030705FA0CF8B6
:1009C00007FA0CF726EA0806374307604E6816F464
:1009D000403F1CD04E4E376847F48047376036683A
:1009E00022F00308970706F480460096494E3F0F11
:1009F0004644B146D6F80868DFF81C810AFA07FCBD
:100A0000404526EA0C0603D14FF0000C41E076E0A9
:100A1000DFF808C1604502D14FF0010C39E0DFF882
:100A200000C1604502D14FF0020C32E0DFF8F4C0A3
:100A3000604502D14FF0030C2BE0DFF8ECC06045BD
:100A400002D14FF0040C24E0DFF8E0C0604502D191
:100A50004FF0050C1DE0DFF8D8C0604502D14FF023
:100A6000060C16E0DFF8CCC0604502D14FF0070C51
:100A70000FE0DFF8C4C0604502D14FF0080C08E079
:100A8000DFF8B8C0604502D14FF0090C01E04FF02B
:100A90000A0C0CFA07FC4CEA060CC9F808C84F68A7
:100AA000DBF80060FF0226EA030600D51E43774606
:100AB000CBF80060D1F804C0DEF800605FEA8C2C4F
:100AC00026EA030600D51E43DFF840C03E60ACF1C5
:100AD000040C4F68DCF80060BF0326EA030600D56B
:100AE0001E430A4FCCF80060083FD1F804C03E68AE
:100AF0005FEACC3C26EA030600D51E433E60521C4A
:100B0000102AFFF405AFBDE8F88F0000083C014053
:100B1000443802400030014000000240000402401E
:100B200000080240000C0240001002400014024085
:100B300000180240001C0240002002400024024035
:100B40000069084000D0012070470000014880681B
:100B500070470000000000200248816802781144BC
:100B60008160704700000020032010B500F06EF88F
:100B70000F2000F005F800F023F8002010BD000061
:100B800070B50D4D04464FF47A700C4A29781268FE
:100B9000B0FBF1F0B2FBF0F000F0CAFD48B9102C48
:100BA00007D200222146501E00F030F800206C6071
:100BB00070BD012070BD0000000000200C0000206E
:100BC0000A4808B5016841F080510160006800F0F2
:100BD000805000900548001D016841F4804101608B
:100BE000006800F48040009008BD000040380240DA
:100BF000002809DB410900F01F028900012001F1F2
:100C0000E0219040C1F80001704700000E4BF0B4A5
:100C10001B680D46C3F30223C3F10706042E00D957
:100C20000426191D072901D2002300E0DB1E012440
:100C300004FA06F19C40491E2940641E9940144064
:100C40002143F0BC02F094BE0CED00E0064900F038
:100C5000070210B54FF6FF040868044B204040EA35
:100C600002201843086010BD0CED00E00000FA05FA
:100C70001848F8B5016841F0805101600068164CD1
:100C800000F080500090206840F480302060FFF732
:100C90005DFF4FF47A76054605E000BFFFF756FF8B
:100CA000401BB0420FD86068C003F7D5206840F4FD
:100CB00000302060FFF74AFF054606E0FFF746FFD9
:100CC000401BB04201D90320F8BD60688003F5D510
:100CD0000020F8BD40380240007000402DE9F84F78
:100CE00004460078DFF824944FF000063746C0072A
:100CF0000ED0D9F8001021F40001C9F80010D9F87D
:100D00000010626B1143C9F80010606B00B9012636
:100D1000FE4D2068843500030ED5E16B286820F471
:100D2000401008432860E06BB0F5801F01D010B17F
:100D300002E0012600E0012720684FF4800BC0028A
:100D40000CD5216C286820F4400008432860206CF2
:100D5000584501D1012601E000B901272068C101F1
:100D600000D50126800666D5E8483830016841F094
:100D7000805101600068DFF898A300F08050009077
:100D8000DAF8001041F48071CAF80010FFF7DEFEB7
:100D9000804605E0FFF7DAFEA0EB080064287DD866
:100DA000DAF80000C005F5D5DFF8608308F16808BF
:100DB000D8F8000010F440702AD0218E01F4407160
:100DC000814225D0D8F80010D8F8002021F44071D5
:100DD00042F48032C8F80020D8F8002022F4803293
:100DE000C8F80020C8F80010D8F80000C0070FD0DD
:100DF000FFF7ACFE824607E0FFF7A8FEA0EB0A0172
:100E000041F288308142CAD8D8F800008007F3D573
:100E1000206BC0F3012103297ED0D9F8001021F402
:100E2000F811C9F80010228ED8F80010C2F30B0296
:100E30001143C8F800102078C00607D5286820F0B4
:100E4000807028602868A16B084328602188AF481B
:100E50008830490405D5626E016821F440311143A0
:100E600001602188090405D5A26E016821F44021A2
:100E7000114301602168C90305D5E26E016821F4C0
:100E80004011114301602168890305D5226F016873
:100E900021F4400111430160217800E016E1490688
:100EA00005D5626C016821F00301114301602178CE
:100EB000090605D5A26C016821F00C0111430160FF
:100EC0002188C90505D5E26C016821F03001114384
:100ED00001602188890505D5226D016821F0C001D6
:100EE000114301602188490505D5626D016821F42F
:100EF0004071114301602188090505D5A26D016883
:100F000021F44061114301602188C90407D5E26DD5
:100F1000016821F4405100E04AE01143016021885A
:100F2000890405D5226E016821F440411143016016
:100F30002168490205D5A26F016821F08061114343
:100F4000016021684FF0006A890209D5E26F0168EB
:100F500021F0006111430160E16F514500D101278B
:100F600021680A0700D50127490305D5626F01688A
:100F700021F04071114301602168090206D5D4F8BF
:100F80008020016821F0805111430160DFF88491D5
:100F9000012E02D0206880017ED5D9F800004E468F
:100FA00020F08060C9F80000FFF7D0FD80460FE018
:100FB000594AD9F80030104023F4F8120243C9F816
:100FC000002030E7FFF7C2FDA0EB080064287DD8C1
:100FD00030680001F6D421784C487C30C90712D023
:100FE000616B81B9237A62680168D0F800C0920110
:100FF000C1F3014142EA0142CCF3036142EA0161DB
:1010000041EA0371016021680A0303D5E26BB2F57E
:10101000801F04D0C9021AD5216C594517D16368C5
:10102000016894F80CC002689B01C1F3014143EAD6
:101030000141C2F3027241EA0C6141EA02710160AE
:101040002968626A21F01F01521E1143296021683C
:10105000C90110D5238A62680168D0F800C09201E6
:10106000C1F3036142EA034242EA0162CCF3027136
:1010700042EA01710160216889010CD56168228A08
:10108000237B94F808C0890141EA024141EA0361E7
:1010900041EA0C71016000E011E03168B04641F0B6
:1010A00080613160FFF752FD064604E0FFF74EFD18
:1010B000801B64280AD8D8F800000001F6D56FB369
:1010C000D9F800004E4620F0805000E07BE0C9F8DF
:1010D0000000FFF73BFD074605E000BFFFF736FDC8
:1010E000C01B64286FD83068C0438000F6D507481D
:1010F000216880300A0301D5E26B1AB1C90225D5F7
:10110000216C19BB63690168277E08E0083802403A
:101110000070004000380240FFFCFF0F5AE00268F8
:10112000C1F301419B0143EA0143C2F3027143EA67
:10113000076242EA0171016029686FF0FF03A26A49
:1011400021F4F85103EB022211432960216889023E
:1011500012D5E16F51450FD1238C62690168076890
:101160009201C1F3036142EA034242EA0162C7F31A
:10117000027142EA017101602178090716D561699F
:101180000268D0F800C08B01277FC2F30362CCF362
:10119000014143EA014141EA026141EA077101600C
:1011A0002868E16A20F4403008432860306840F045
:1011B00080503060FFF7CAFC044607E0FFF7C6FC2A
:1011C000001B642802D90320BDE8F88F3068C043B3
:1011D0008000F3D40020F7E72DE9F04705000F4623
:1011E00063D0444E306800F00F00B84209D2306836
:1011F00020F00F0038433060306800F00F00B84234
:1012000053D128683C4C810712D5400703D520688C
:1012100040F4E05020602878000703D5206840F4AF
:1012200060402060A968206820F0F000084320603A
:101230002878C0072AD0304968680839012810D0BA
:101240000968022810D0890700292EDA216821F0C8
:10125000030101432160FFF779FC804641F28839A0
:101260000DE009688903EFE78901EDE7FFF76EFC00
:10127000A0EB0801494502D90320BDE8F087686862
:10128000216801F00C01B1EB800FEFD1306800F064
:101290000F00B8420BD9306820F00F00384330609F
:1012A000306800F00F00B84201D00120E5E728784F
:1012B000400705D5E968206820F4E0500843206025
:1012C0002878000706D52869216821F4604141EAA1
:1012D000C000206000F038F82168084AC1F303110B
:1012E000515CC8400649086006480068FFF748FCA2
:1012F0000020C2E7003C024008380240504A000883
:101300000C0000200400002004490548096800681A
:10131000044AC1F38221515CC8407047083802403A
:101320000C000020604A000804490548096800686C
:10133000044AC1F34231515CC8407047083802404A
:101340000C000020604A0008154910B515480968CE
:1013500011F00C0213D01449042A0FD0082A0ED120
:101360000F4C241F2268236802F03F025B0207D55E
:101370002068C0F38810A0FB010106E0084610BDFC
:101380002168C1F38811A1FB00010023FEF738FF9B
:101390002168C1F30141491C4900B0FBF1F010BDC7
:1013A000083802400024F40040787D012DE9F84F10
:1013B00004004FF000076ED02078DFF868A3AAF190
:1013C0000408C007A8F104054CD0DAF80010504614
:1013D000C1F38101012908D00068C0F3810002280F
:1013E0000AD1D8F80000400206D52868800339D514
:1013F00060680028DFD035E06068B0F5803F0BD032
:1014000010B1B0F5A02F11D0286820F480302860EA
:10141000286820F4802002E0286840F480302860AA
:10142000606890B1FFF792FB06460AE0286840F436
:1014300080202860F0E700BFFFF788FB801B64284E
:1014400072D828688003F7D50CE0FFF77FFB0646CB
:1014500005E000BFFFF77AFB801B6428F0D82868FE
:101460008003F7D42078800742D5DAF80010504680
:1014700011F00C0F08D00068C0F3810002280BD1D6
:10148000D8F80000400207D42868800718D5E06823
:10149000012800D114E041E1E0680028286817D055
:1014A00040F001002860FFF751FB064605E000BF51
:1014B000FFF74CFB801B0228C2D828688007F7D5AD
:1014C0002069296821F0F80141EAC00028600FE096
:1014D00020F001002860FFF739FB064605E000BF59
:1014E000FFF734FB801B02281ED828688007F7D43A
:1014F0002078000729D58B4861696C300029814626
:10150000016812D041F001010160FFF71FFB0646A0
:1015100005E000BFFFF71AFB801B022804D8D9F8AA
:1015200000008007F6D510E089E021F0010101609C
:10153000FFF70CFB064604E0FFF708FB801B0228C0
:101540007DD8D9F800008007F6D4207840076BD505
:10155000DFF8D09109F13809D9F80000C0000BD4A8
:10156000D9F8001041F08051C9F80010D9F80000F6
:10157000012700F0805000906B480168C90512D423
:101580000168834641F480710160FFF7DFFA064687
:1015900005E000BFFFF7DAFA801B64284FD8DBF8BC
:1015A0000000C005F6D55F4EA068683601280AD055
:1015B00008B1052811D0306820F001003060306893
:1015C00020F0040002E0306840F001003060A068C4
:1015D000A0B1FFF7BBFA83460CE0306840F004008E
:1015E0003060F0E7FFF7B2FAA0EB0B0141F2883070
:1015F000814266D830688007F4D50EE0FFF7A6FA7E
:10160000834607E0FFF7A2FAA0EB0B0141F2883016
:10161000814256D830688007F4D42FB1D9F8001031
:1016200021F08051C9F80010A069C8B3DAF80010A1
:10163000C1F3810102294BD00228286800E040E074
:1016400020F08070286003D0FFF780FA04463BE06A
:10165000FFF77CFA064604E0FFF778FA801B0228C1
:101660002FD828688001F7D4D4E90962D4E90701AA
:101670002E4B570894F82C20084303EB074343EA0A
:101680008611084340EA026040F00050C8F80000AC
:10169000286840F080702860FFF758FA044606E09A
:1016A0003EE000BFFFF752FA001B022809D8286865
:1016B0008001F7D534E000BFFFF748FA001B02288D
:1016C00002D90320BDE8F88F28688001F4D427E010
:1016D0000128D8F8000021D0E16900F480028A4294
:1016E0001CD1216A00F03F028A4217D1626A47F694
:1016F000C0710140B1EB821F10D1A16A4FF0FF32DF
:1017000000F4403302EB5101B3EB014F06D194F8E2
:101710002C1000F07060B0EB016F01D00120D1E718
:101720000020CFE708380240007000400000FFFFB3
:10173000401EB0F1807F10B501D3012010BD4FF0E5
:10174000E02460610F21601702F012F90020A0610F
:101750000721216110BD7047704770472DE9F043A4
:1017600090F83C20012A42D0012280F83C2051F818
:101770000C4BDFF880804FF0000991E8680051E9D8
:10178000022723F44073B1F80CC03B43CF6923F424
:1017900080631343026823F40063234323F48053DC
:1017A00043EA050323F4005343EA060323F480438A
:1017B00043EA07030C3923F47023424543EA0C4300
:1017C00002D00D4CA2420CD18D8C23F47006D1E9CD
:1017D000073446EA055121F08071194321F0007366
:1017E0002343536480F83C900020BDE8F08302203E
:1017F000FBE700000000014000040140F0B590F854
:101800003C20012A3BD01F4E012480F83C4002229C
:1018100080F83D2002681C4D5368B242D2F808C0DF
:1018200001D0AA4203D14F6823F470033B430F68F1
:1018300023F070031F4357600268B24213D0B2F125
:10184000804F10D0114B9A420DD0114B9A420AD0C2
:10185000104B9A4207D0AA4205D00F4B9A4202D0B1
:101860000E4B9A4204D189682CF080031943916091
:10187000002180F83D4080F83C100846F0BD022071
:10188000F0BD0000000001400004014000040040E1
:1018900000080040000C00400040014000180040DB
:1018A00010B5040003D094F83D0010B107E001200A
:1018B00010BD002084F83C00204600F023F80220F0
:1018C00084F83D002068211D01F030FC012084F8DF
:1018D000480084F83E0084F83F0084F8400084F813
:1018E000410084F8420084F8430084F8440084F8FE
:1018F000450084F8460084F8470084F83D00002045
:1019000010BD000008B500680649884208D10648A5
:10191000016841F010010160006800F010000090C3
:1019200008BD0000001000404038024070B53F4C38
:1019300005463F492DED068B2068401C2060286835
:1019400088420AD1287F012802D0042803D004E06D
:1019500001F018FA01E001F0EFFA364928688842F0
:101960000AD1287F012802D0042803D004E001F026
:1019700035F801E001F00CF96068401C6060B0F5DA
:10198000C87F4FD1002060602B48006AFEF703FE3D
:1019900000EE900A21F0004110EE900A41EC1A0B83
:1019A0002648006AFEF7F7FD09EE100A21F0004113
:1019B00019EE100A41EC190B2148006AFEF7EBFD05
:1019C00008EE100A21F0004118EE100A41EC180B45
:1019D0001C48006AFEF7DFFD00EE100A53EC182BDE
:1019E00010EE100A21F00041FEF74DFC53EC192BCC
:1019F000FEF749FC53EC1A2BFEF745FC9FED121B3A
:101A000053EC112BFEF7E6FC084C41EC180B803C24
:101A1000E068FEF7C0FD53EC182BFEF734FCFEF730
:101A2000D8FDE060BDEC068B70BD0000B800002062
:101A3000000C004000040040E4040020C00400202A
:101A40009C04002078040020000000000000D03F2B
:101A50002DE9F041054690F83C0000260C4601288F
:101A600010D0012085F83C0072B1042A1CD0082A4D
:101A70002CD00C2A51D00126002085F83C0030469D
:101A8000BDE8F0810220FBE7E3682868D4E9001292
:101A900001F0F6FC2868816921F00C018161286859
:101AA0008169A26811430FE0E3682868D4E9001255
:101AB00001F026FD2868816921F440618161286870
:101AC0008169A26841EA02218161D5E7D4E9002356
:101AD0002868217B076A4FF4206C090727F4807778
:101AE00007620CEA0222C769D0F820C027F003077A
:101AF0001F432CF4206C27F0F00342EA0C0243EA67
:101B00001161C16102622868C16921F00C01C161E3
:101B10002868A268C169114329E02868D4E9003225
:101B2000E168076A4FF6FF7C4FF4204E27F4805798
:101B300007620CEA0131C769D0F820C00EEA03330E
:101B400027F4407747EA02222CF4204C22F470421A
:101B50001143C16143EA0C0303622868C16921F49F
:101B60004061C1612868A168C26942EA0121C1617E
:101B700082E710B5040003D094F83D0010B107E0EF
:101B8000012010BD002084F83C00204600F022F81F
:101B9000022084F83D002068211D01F0C7FA0120D1
:101BA00084F8480084F83E0084F83F0084F8400040
:101BB00084F8410084F8420084F8430084F844002B
:101BC00084F8450084F8460084F8470084F83D0016
:101BD000002010BD70B586B0044614216846FEF79B
:101BE00047FB2F490025236802242E4E10392C4A2A
:101BF0002D48B3422FD1136843F0020313601268DB
:101C000002F0020205920A6842F001020A600A68C4
:101C100002F0010205920A6842F002020A600968B5
:101C200001F00201059140218DE83200CDE9035415
:101C30006946FEF761FE012069468DE831001B48C8
:101C4000CDE90354FEF758FE00221D201146FEF791
:101C5000DDFF1D2020E0164EB3421FD1136843F074
:101C600008031360126802F0080205920A6842F045
:101C700001020A60096801F00101059105218DE862
:101C80003200CDE903546946FEF736FE00223220C9
:101C90001146FEF7BBFF3220FEF7AAFF06B070BD6B
:101CA00040380240000400400000024000040240AE
:101CB000000C004030B504464FF0000579B104290E
:101CC00012D0082915D00C2918D0102919D094F851
:101CD000430000BF94F84720012817D114E094F87E
:101CE0003E0094F84420F7E794F83F0094F845202C
:101CF000F2E794F8400094F84620EDE794F84100AC
:101D0000E8E794F84200E5E7012A01D0012030BD60
:101D10004FF0020079B1042916D008291DD00C29F2
:101D20004FD0102950D084F843000C2984F8470084
:101D30004DD0012543E084F83E0084F8440020683B
:101D4000C26842F0020210E084F83F0084F84500C7
:101D50002068C26842F0040207E084F8400084F87A
:101D600046002068C26842F00802C2602068012272
:101D700001F042FA18492068884214D0B0F1804F2F
:101D800011D0164988420ED0154988420BD015490A
:101D9000884208D01449884205D01449884202D0AC
:101DA0001349884207D18168124A1140062906D09A
:101DB000B1F5803F03D0016841F001010160284680
:101DC00030BD84F84100B0E784F84200ADE72068F8
:101DD000C26842F01002C8E7000001400004004061
:101DE00000080040000C0040000401400040014099
:101DF000001800400700010070B504460068002587
:101E00000169C943890715D4C168C943890711D439
:101E1000EA1E02610121217720688069800720463F
:101E200002D0FFF783FD04E000F0FCF8204600F04C
:101E3000D7F9257720680169C943490717D4C168D4
:101E4000C943490713D402216FF0040202612177CC
:101E50002068806910F4407F204602D0FFF766FDBD
:101E600004E000F0DFF8204600F0BAF9257720689A
:101E70000169C943090716D4C168C943090712D4C7
:101E800004216FF00802026121772068C069800791
:101E9000204602D0FFF74AFD04E000F0C3F82046D8
:101EA00000F09EF9257720680169C943C90617D457
:101EB000C168C943C90613D408216FF0100202613A
:101EC00021772068C06910F4407F204602D0FFF7D8
:101ED0002DFD04E000F0A6F8204600F081F92577FA
:101EE00020680169C943C90708D1C168C943C90746
:101EF00004D1891E0161204600F0F0F920680169D3
:101F0000C943090609D4C168C943090605D46FF05D
:101F1000800101612046FFF71FFC20680169C94369
:101F2000C90509D4C168C943090605D46FF4807195
:101F300001612046FFF70FFC20680169C94349068B
:101F400009D4C168C943490605D46FF04001016155
:101F5000204600F0EFF920680169C94389060BD4D7
:101F6000C168C943890607D46FF02001016120468A
:101F7000BDE87040FFF7F1BB70BD000070B586B0E2
:101F8000054614216846FEF773F928680024214AA3
:101F900002251F49012690420FD1086840F0100029
:101FA00008600868694600F0100005904FF4D440BE
:101FB00000901948CDE9015423E0B0F1804F24D1BD
:101FC000086840F001000860086800F00100059012
:101FD000086840F0020008600868694600F00200E6
:101FE000059020200090CDE901540C48CDE903462E
:101FF000FEF782FC40F60840009009486946CDE9AA
:102000000154CDE90346FEF777FC06B070BD000031
:102010003038024000000140001002400000024041
:1020200000040240704770B5044690F83C0000265A
:102030000D4601280BD0012084F83C000C2A4AD020
:1020400007DC82B1042A20D0082A06D131E0022020
:1020500070BD102A53D0142A63D00126002084F8C2
:102060003C00304670BD206801F0D4F820688169DA
:1020700041F0080181612068816921F004018161DA
:1020800020682A698169114311E0206801F0FCF899
:102090002068816941F4006181612068816921F4CF
:1020A0008061816120682969826942EA0121816138
:1020B000D4E7206801F024F92068C16941F00801E3
:1020C000C1612068C16921F00401C16120682A69E9
:1020D000C169114311E0206801F04EF92068C1691F
:1020E00041F40061C1612068C16921F48061C1616E
:1020F00020682969C26942EA0121C161AEE720680E
:1021000001F066F92068416D41F0080141652068E1
:10211000416D21F00401416520682A69416D114338
:1021200011E0206801F080F92068416D41F4006100
:1021300041652068416D21F480614165206829690D
:10214000426D42EA0121416588E710B5040003D0E1
:1021500094F83D0010B107E0012010BD002084F884
:102160003C00204600F022F8022084F83D00206860
:10217000211D00F0DBFF012084F8480084F83E00B8
:1021800084F83F0084F8400084F8410084F842005D
:1021900084F8430084F8440084F8450084F846003D
:1021A00084F8470084F83D00002010BD08B50068A1
:1021B0000949884201D1094804E0B0F1804F09D1B2
:1021C0000648001F016841F001010160006800F04D
:1021D0000100009008BD00000000014044380240AA
:1021E0007047000010B504464FF0020269B104299F
:1021F00012D0082917D00C291CD0102921D094F80E
:102200004300012824D0012010BD94F83E0001288D
:10221000F9D184F83E201DE094F83F000128F2D166
:1022200084F83F2016E094F840000128EBD184F8B0
:1022300040200FE094F841000128E4D184F84120C7
:1022400008E094F842000128DDD184F8422001E042
:1022500084F843200122206800F0CEFF174920684F
:10226000174A884201D0904203D1436C43F40043A3
:1022700043642068884213D0B0F1804F10D01149D8
:1022800088420DD0104988420AD01049884207D0B0
:10229000904205D00E49884202D00E49884207D1AB
:1022A00081680D4A1140062906D0B1F5803F03D060
:1022B000016841F001010160002010BD00000140F3
:1022C000000401400004004000080040000C0040F1
:1022D00000400140001800400700010010B5084907
:1022E00004460068884201D100F032FD05492068AB
:1022F000884203D1BDE8104000F0FEBE10BD0000D2
:1023000000040040000C004002464FF0000041B1C4
:10231000042909D008290AD00C2901D11068006CC1
:1023200070471068406B70471068806B704710688A
:10233000C06B7047704710B5040002D0E06F10B159
:1023400007E0012010BD002084F87800204600F04E
:1023500025F82420E0672068016821F00101016070
:10236000204601F06FF90128ECD0606A10B12046D8
:1023700001F0E1F82068416821F490414160206853
:10238000816821F02A0181602068016841F0010123
:1023900001602046BDE8104001F031B92DE9F04F51
:1023A000A7B00546142121A8FDF762FF84216846E5
:1023B000FDF75EFF4F4C0226514903272868103C69
:1023C000DFF830810025DFF830A18842DFF82CB13A
:1023D0004FF0080938D10015159500906846FEF7B2
:1023E0007DFC08B1FEF761FAD8F8001041F48011C5
:1023F000C8F80010D8F8000000F48010269020687B
:1024000040F004002060206800F00400269020685E
:1024100040F008002060206821A923954C4600F078
:10242000080026904FF48050CDE92106CDE92479AB
:102430005046FEF761FA04202395CDE92106CDE947
:10244000247421A9584628E02E4988422AD18015B3
:10245000139500906846FEF741FC08B1FEF725FA97
:10246000D8F8001041F48021C8F80010D8F8000016
:1024700000F480202690206840F00800206020684A
:102480000721239500F008002690CDE924714FF430
:102490004070CDE9210621A95846FEF72DFA27B054
:1024A000BDE8F08F18498842F9D1C0141695009004
:1024B0006846FEF713FC08B1FEF7F7F90D48001D5A
:1024C000016841F020010160006800F020002690C2
:1024D000206840F0040020602068C021CDE921166A
:1024E00000F0040021A9CDE92590CDE923575046FD
:1024F000D3E700004038024000080240000C0240D0
:10250000005000400048004000140140FEE7000079
:1025100030B587B014216846FDF7AAFE214801684E
:1025200041F080010160016801F0800105910168BE
:1025300041F001010160016801F0010105910168AC
:1025400041F002010160016801F00201059101689A
:1025500041F010010160016801F01001059101686E
:1025600041F008010160016801F00801059101686E
:1025700041F004010160006800250224694600F072
:10258000040005908A200294CDE900050648FEF774
:10259000B3F906486946CDE900450294FEF7ACF967
:1025A00007B030BD30380240000002400004024055
:1025B00010B596B0002468461C211294139414940C
:1025C000FDF756FE2C2107A8FDF752FE2E48D72214
:1025D0002C4942F20F7380E81600C0E903344461CD
:1025E0008461FFF7B2FD08B1FEF75FF9264812A932
:1025F000129413941494FFF701F908B1FEF755F9FA
:1026000060206946CDE900041F480022029403942B
:10261000049405940694FFF706FD08B1FEF745F90A
:10262000194804226946FFF7FEFC08B1FEF73DF9A0
:10263000154808226946FFF7F6FC08B1FEF735F9A0
:1026400011480C226946FFF7EEFC08B1FEF72DF9A0
:102650004FF4005007940894099401030A94CDE9BB
:102660000B40CDE90E41084807A90D941094119430
:10267000FFF774F808B1FEF718F90348FFF77EFC7E
:1026800016B010BD000001402C01002010B58AB02A
:10269000002468461C21079408940994FDF7E8FD7E
:1026A000214842F20F71D7224FF08043C0E9024126
:1026B00004618461C0E90032FFF747FD08B1FEF70D
:1026C000F4F8194807A907940994FFF797F808B197
:1026D000FEF7EBF860206946CDE9000412480022BD
:1026E00002940494FFF79FFC08B1FEF7DEF80E4851
:1026F00004226946FFF797FC08B1FEF7D6F80A48AE
:1027000008226946FFF78FFC08B1FEF7CEF80648AD
:102710000C226946FFF787FC08B1FEF7C6F80248AD
:10272000FFF72CFC0AB010BD7801002010B588B06E
:102730001C4800241A496B224FF6FF730094019441
:102740000294039404940594069480E81600C0E96A
:1027500003348461FFF70DFA08B1FEF7A6F81148BB
:10276000694600940294FFF749F808B1FEF79DF816
:102770000120002203A9CDE903400A4805940694EC
:10278000FFF766F908B1FEF790F80648082203A99A
:10279000FFF75EF9002801D0FEF787F808B010BDFA
:1027A00000040040C401002010B588B01C4800247B
:1027B0001A496B224FF6FF7300940194029403941C
:1027C00004940594069480E81600C0E903348461FB
:1027D000FFF7CFF908B1FEF768F811486946009491
:1027E0000294FFF70BF808B1FEF75FF80120002212
:1027F00003A9CDE903400A4805940694FFF728F998
:1028000008B1FEF752F80648082203A9FFF720F99D
:10281000002801D0FEF749F808B010BD000C0040B8
:10282000100200203EB51048002442F210720D4DF7
:102830006B2300940194802102948161C0E90242DB
:10284000C0E90053FFF72CF808B1FEF72EF8064850
:10285000694600940294FEF7D1FF002801D0FEF7EC
:1028600024F83EBD001000405C0200200D4800210D
:1028700010B50B4C0C224FF4E1330460C0E9013178
:10288000C160C0E904128161C16101624162FFF768
:1028900052FD002803D0BDE81040FEF706B810BD79
:1028A00000500040A80200200D48002110B50B4C3C
:1028B0000C224FF4E1330460C0E90131C160C0E98A
:1028C00004128161C16101624162FFF734FD002899
:1028D00003D0BDE81040FDF7E8BF10BD0048004040
:1028E000300300200D48002110B50B4C0C224FF492
:1028F000E1330460C0E90131C160C0E904128161C3
:10290000C16101624162FFF716FD002803D0BDE8F6
:102910001040FDF7CABF10BD00140140B8030020ED
:10292000FEE7FEE770477047FEF716B930B593B083
:1029300030216846FDF79CFC14210CA8FDF798FC9B
:102940002048016841F080510160006800F080502B
:1029500011901D48016841F4404101600068002564
:102960000DF1200C0224009400F440401190082244
:10297000D823CDE9064510218CE81C0001200B94DA
:10298000CDE903016846FEF711FD08B172B6FEE716
:10299000FEF76EF908B172B6FEE74FF480524FF4BD
:1029A000A0510F20CDE90F120CAA072182E83100B7
:1029B0000CA8FEF711FC002801D072B6FEE713B098
:1029C00030BD0000403802400070004002480168FD
:1029D00041F470010160704788ED00E02DE9F0419D
:1029E000674D0127674C0026AA79D4E904012AB370
:1029F000FFF78AFCE8644CF25031E38B002B63D084
:102A0000012B4FF6FF7267D0C3EB034CAB6C95F90B
:102A100007E0D21A62441044A0F57F40FF38B1FBB2
:102A2000F0F000FB0EF06865D5E914028118296505
:102A3000286E401C2866042859D078E0E683FFF70A
:102A400063FCA864AF71A18BA069FEF779F8C0B1EF
:102A5000EF716069C0B104281CD0082820690068A3
:102A6000016A1DD021F4204101626069D8B10428B7
:102A70001FD0082820690068016A22D041F4005163
:102A80001CE0FF20E871E4E720690068016A21F09A
:102A90000A01E9E720690068016A21F0A001E3E783
:102AA00021F42061E0E720690068016A41F0020139
:102AB00004E020690068016A41F020010162BDE87C
:102AC000F08141F40071F9E7AB6C95F90720C01A69
:102AD000B1FBF0F05043A6E7D5F848C095F90730B0
:102AE000A2EB0C021044B1FBF0F058439BE72E66BA
:102AF000A86DE8652B7A63B3891A0144CA1701EB04
:102B000092718910A9650844FDF745FD9FED1E1BD4
:102B100000EE100A53EC112B10EE100A21F00041C8
:102B2000FDF78AFD01D8A86D20622E662E656069CA
:102B3000B8B104281BD0082820690068016A1CD09D
:102B400021F42041016220690068016A0162AE71CE
:102B5000B5E70144CA1701EB92718910A9652F727C
:102B6000D1E720690068016A21F00A01EAE72069DB
:102B70000068016A21F0A001E4E721F42061E1E7A7
:102B800038000020C00400200000000000001440B5
:102B90002DE9F041674D0127674C00266A7AD4E998
:102BA00004012AB3FFF7B0FBA8664CF25031E38B67
:102BB000002B63D0012B4FF6FF7267D0C3EB034CA1
:102BC0006B6E95F90AE0D21A62441044A0F57F407A
:102BD000FF38B1FBF0F000FB0EF02867D5E91B02CF
:102BE0008118E966E86F401CE867042859D078E04E
:102BF000E683FFF789FB68666F72A18BA069FDF71A
:102C00009FFFC0B1AF726069C0B104281CD0082812
:102C100020690068016A1DD021F4204101626069C9
:102C2000D8B104281FD0082820690068016A22D082
:102C300041F400511CE0FF20A872E4E7206900681D
:102C4000016A21F00A01E9E720690068016A21F0C0
:102C5000A001E3E721F42061E0E720690068016A50
:102C600041F0020104E020690068016A41F020019E
:102C70000162BDE8F08141F40071F9E76B6E95F9EE
:102C80000A20C01AB1FBF0F05043A6E7D5F864C0A3
:102C900095F90A30A2EB0C021044B1FBF0F0584356
:102CA0009BE7EE67686FA867EB7A63B3891A014404
:102CB000CA1701EB9271891069670844FDF76BFC34
:102CC0009FED1E1B00EE100A53EC112B10EE100AA4
:102CD00021F00041FDF7B0FC01D8686F2062EE677B
:102CE000EE666069B8B104281BD008282069006826
:102CF000016A1CD021F42041016220690068016A48
:102D000001626E72B5E70144CA1701EB9271891036
:102D10006967EF72D1E720690068016A21F00A0152
:102D2000EAE720690068016A21F0A001E4E721F4E4
:102D30002061E1E738000020E404002000000000EA
:102D4000000014400148FFF757B80000C4010020FC
:102D50000A4800214FF6FF73C28B9A4202D2521CDE
:102D6000C28301E0C18301620548C28B9A4202D24C
:102D7000521CC2837047C18301627047C0040020A7
:102D8000E40400202DE9F041674D0127674C00263F
:102D90002A78D4E904012AB3FFF7B6FA68614CF245
:102DA0005031E38B002B63D0012B4FF6FF7267D0BD
:102DB000C3EB034C2B6995F901E0D21A624410442D
:102DC000A0F57F40FF38B1FBF0F000FB0EF0E861AA
:102DD000D5E906028118A961A86A401CA8620428E6
:102DE00059D078E0E683FFF78FFA28612F70A18B26
:102DF000A069FDF7A5FEC8B1FF2068706069B8B191
:102E000004281BD0082820690068016A1CD021F41E
:102E1000204101626069D0B104281ED008282069D1
:102E20000068016A21D041F400511BE06F70E5E7B2
:102E300020690068016A21F00A01EAE72069006858
:102E4000016A21F0A001E4E721F42061E1E72069B3
:102E50000068016A41F0020104E020690068016A2B
:102E600041F020010162BDE8F08141F40071F9E711
:102E70002B6995F90120C01AB1FBF0F05043A6E789
:102E8000D5F810C095F90130A2EB0C021044B1FB4B
:102E9000F0F058439BE7AE62286A6862AB7863B390
:102EA000891A0144CA1701EB9271891029620844FA
:102EB000FDF771FB9FED1E1B00EE100A53EC112B6A
:102EC00010EE100A21F00041FDF7B6FB01D8286A88
:102ED0002062AE62AE616069B8B104281BD00828D8
:102EE00020690068016A1CD021F420410162206938
:102EF0000068016A01622E70B5E70144CA1701EB50
:102F0000927189102962AF70D1E720690068016A67
:102F100021F00A01EAE720690068016A21F0A001B6
:102F2000E4E721F42061E1E7380000207804002084
:102F300000000000000014402DE9F041674D01271A
:102F4000674C0026EA78D4E904012AB3FFF7DCF9DC
:102F500028634CF25031E38B002B63D0012B4FF6EA
:102F6000FF7267D0C3EB034CEB6A95F904E0D21A09
:102F700062441044A0F57F40FF38B1FBF0F000FB45
:102F80000EF0A863D5E90D0281186963686C401CD6
:102F90006864042859D078E0E683FFF7B5F9E86261
:102FA000EF70A18BA069FDF7CBFDC8B1FF202871A0
:102FB0006069B8B104281BD0082820690068016A3C
:102FC0001CD021F4204101626069D0B104281ED0D8
:102FD000082820690068016A21D041F400511BE0F3
:102FE0002F71E5E720690068016A21F00A01EAE72C
:102FF00020690068016A21F0A001E4E721F4206162
:10300000E1E720690068016A41F0020104E02069FB
:103010000068016A41F020010162BDE8F08141F4DD
:103020000071F9E7EB6A95F90420C01AB1FBF0F0E2
:103030005043A6E7D5F82CC095F90430A2EB0C025A
:103040001044B1FBF0F058439BE76E64E86B2864D2
:103050006B7963B3891A0144CA1701EB9271891025
:10306000E9630844FDF797FA9FED1E1B00EE100A76
:1030700053EC112B10EE100A21F00041FDF7DCFAA1
:1030800001D8E86B20626E646E636069B8B1042891
:103090001BD0082820690068016A1CD021F4204157
:1030A000016220690068016A0162EE70B5E70144BF
:1030B000CA1701EB92718910E9636F71D1E720693A
:1030C0000068016A21F00A01EAE720690068016AE4
:1030D00021F0A001E4E721F42061E1E738000020BD
:1030E0009C04002000000000000014400148FEF78E
:1030F00083BE0000100200200A4800214FF6FF7333
:10310000C28B9A4202D2521CC28301E0C183016287
:103110000548C28B9A4202D2521CC2837047C183B7
:1031200001627047780400209C040020F0B5274B12
:103130004FF0804E264D02689842264E264F274C6F
:1031400009D0704507D0A84205D0B04203D0B8429C
:1031500001D0A04205D1D1F804C022F070024CEA9F
:10316000020298421BD0704519D0A84217D0B04235
:1031700015D0B84213D0A04211D0194DA8420ED09C
:10318000184DA8420BD0184DA84208D0174DA842A0
:1031900005D0174DA84202D0164DA84203D1CD68E4
:1031A00022F440722A434D6922F080022A430260D1
:1031B00098428A68C2620A68826201D0A04201D144
:1031C0000969016301214161F0BD00000000014077
:1031D0000004004000080040000C004000040140D2
:1031E00000400140004401400048014000180040F8
:1031F000001C00400020004010B5046A012301F0CB
:103200001F018B409C4304628A40016A11430162A2
:1032100010BD0000F0B5026ADFF860C0184F22F060
:103220000102DFF860E00262066A4268836926F004
:1032300002060D68B8428C6803EA0C0323F003030E
:1032400044EA060445EA030501D0704505D1CB6880
:1032500024F00804234323F00404B84201D070454D
:1032600005D122F44076D1E9053233431A43426056
:103270008561496841630462F0BD00008FFFFEFF75
:103280000000014000040140F0B5026A194E1A4CDA
:1032900022F01002DFF864E00262056A4368826986
:1032A00025F02005D1F808C0A0420F6802EA060206
:1032B00022F4407245EA0C1542EA072201D070451B
:1032C00006D1CE6825F0800545EA061525F04005B3
:1032D000A04201D0704507D1D1E9054623F44063EF
:1032E00043EA840343EA8603436082614968816359
:1032F0000562F0BDFF8FFFFE0000014000040140A9
:10330000F0B5026A194F1A4E22F48072DFF864E0B9
:103310000262056A4368C26925F40075D1F808C0E5
:10332000B0420C6802EA070222F0030245EA0C25CB
:1033300044EA020401D0704506D1CF6825F400624A
:1033400042EA072222F48065B04201D0704507D1DD
:1033500023F44052D1E9053642EA031242EA061349
:103360004360C4614968C1630562F0BD8FFFFEFF21
:103370000000014000040140F0B5026A124B114FF9
:1033800022F4805298420262046A4268C36924F4BB
:1033900000548E680D6803EA070323F4407344EA7F
:1033A000063443EA052302D0084DA84204D14D69F2
:1033B00022F4804242EA85124260C3614968016496
:1033C0000462F0BDFF8FFFFE0000014000040140D9
:1033D000F0B5026ADFF844C022F480320262056A66
:1033E0004268446D25F400350E8960450C4F0B682A
:1033F00004EA070445EA064543EA040302D0094CFF
:10340000A04204D14C6922F4803242EA0422426094
:103410004365496881650562F0BD00000000014018
:103420008FFFFEFF00040140F0B5026ADFF844C0E0
:1034300022F480120262046A4268436D24F400148C
:103440000E8960450C4F0D6803EA070344EA0654F1
:1034500043EA052302D0094DA84204D14D6922F464
:10346000802242EA8522426043654968C165046260
:10347000F0BD000000000140FF8FFFFE000401408E
:1034800070B5046A174D24F001040462A8428469EF
:10349000056A14D0B0F1804F11D0134EB0420ED057
:1034A000124EB0420BD0124EB04208D0114EB04274
:1034B00005D0114EB04202D0104EB04203D124F0DC
:1034C0000304144301E044F001041A0724F0F0035C
:1034D00025F00A0401F00A01214343EA12628261E5
:1034E000016270BD0000014000040040000800407F
:1034F000000C004000040140004001400018004062
:1035000070B5056AA0244FF6FF7606EA033325F06E
:103510001005056204EA01118469056A24F4407407
:1035200025F0A00544EA0222294322F47042134305
:103530008361016270BD90F82410C90706D001684C
:10354000836A4A6822F400321A434A6090F82410D1
:10355000890706D50168C36A4A6822F480321A4393
:103560004A6090F82410490706D50168036B4A6841
:1035700022F480221A434A6090F82410090706D5E5
:103580000168436B4A6822F400421A434A6090F88B
:103590002410C90606D50168836B8A6822F480521C
:1035A0001A438A6090F82410890606D50168C36B17
:1035B0008A6822F400521A438A6090F8241049065F
:1035C00011D50168036C4A6822F480121A434A60DC
:1035D000016CB1F5801F06D10168436C4A6822F482
:1035E000C0021A434A6090F82410090606D5016803
:1035F000826C486820F4002010434860704738B55A
:1036000000250446C0F88450FDF7A0FA0346206860
:10361000006800070BD56FF07E4000900022204626
:103620004FF4001100F026F908B1032038BD202026
:10363000E067C4F8800025666566002084F878504D
:1036400038BD00002DE9F04104460368C269816875
:10365000D4E90450DFF8F0C17C4E29431F680025EF
:1036600010437B4A014307EA0C070F431F604FF4E6
:1036700000402168E7684B6823F440533B434B60AC
:103680002768A369216AD7F808C019432CF430636E
:103690000B43BB602168B1420AD1116811F00301EC
:1036A00052D001297CD0022971D003296ED184E047
:1036B000684B99420AD1116811F00C0167D00429B6
:1036C00065D0082975D00C2960D176E0624B99420B
:1036D0000AD1116811F0300159D010296BD020297E
:1036E00067D0302952D168E05C4B99420AD1116809
:1036F00011F0C0014BD040295DD0802959D0C0299C
:1037000044D15AE0564B99420DD1116811F44071E1
:103710003DD0B1F5807F4ED0B1F5007F49D0B1F5F5
:10372000407F33D149E04F4B99420FD1116811F4DA
:10373000406109D0B1F5806F3DD0B1F5006F38D050
:10374000B1F5406F22D138E0012120E0464B99428B
:103750000DD1116811F4405119D0B1F5805F2AD014
:10376000B1F5005F25D0B1F5405F0FD125E03F4BAB
:1037700099420BD1116811F4404108D0B1F5804F46
:1037800019D0814215D0B1F5404F16D01021E36910
:10379000374A4FF6EF7683422ED1092949D201E00C
:1037A00009E006E0DFE801F00B0E11451345454541
:1037B00016000221EBE70421E9E70821E7E7FDF71E
:1037C000A3FD06E0FDF7B0FD03E0104602E0FDF7C3
:1037D000BBFD78B36168400000EB5100B0FBF1F035
:1037E000A0F11001B14224D84FF6F0732168C0F364
:1037F00042021840104320E009291AD2DFE801F004
:1038000005080B190D1919191000FDF77DFD06E0CB
:10381000FDF78AFD03E0104602E0FDF795FD48B193
:10382000616800EB5100B0FBF1F0A0F11001B14272
:1038300001D9012502E0216880B2C8600020A0669D
:10384000E0662846BDE8F081F369FFEF0010014013
:10385000903802400044004000480040004C0040C6
:10386000005000400014014000780040007C0040FF
:103870000024F4002DE9F0479A4617460E46044608
:10388000089D4FF000094FF020084CE0681C4AD01A
:10389000FDF75CF9A0EB0A00A8422AD84DB32068D6
:1038A000016849073FD5C069C04300053BD4216882
:1038B0004FF400600862216851E8000F20F4D070D6
:1038C00041E80002002AF6D12068083050E8001FC5
:1038D00021F0010140E80012002AF5D1C4F87C80F3
:1038E00084F87890C4F88080C4F884800320BDE810
:1038F000F087206850E8001F21F4D07140E80012E2
:10390000002AF6D12068083050E8001F21F001019C
:1039100040E80012002AF5D1C4F87C8084F8789041
:10392000C4F88080E2E72068C06936EA000004D06D
:103930000020B842AAD00020D9E70120F9E7FEE72D
:1039400003B401984100009850EAC12018BF042038
:103950004A0D18BF40F0010040F2FF72B2EB515F18
:1039600008BF40F00200012808BF052002B07047E0
:10397000090700284FEA116104DB00F1E02080F81C
:103980000014704700F00F0000F1E02080F8141DD3
:10399000704700000000000010B52F499FED2C1B60
:1039A0002DED020B84B0059820F000408842D8BF6E
:1039B0009DED040B2DDD2949884209D1049840B9B9
:1039C0004FF0010000F0D4FC00F0A2FC06B010BDE6
:1039D00005DB9DED040B00F08FFC06B010BD6846C2
:1039E0009DED040B00F0A0F810F0030004BF9DED66
:1039F000021B9DED000B0CD001280ED09DED021B8B
:103A00009DED000B022817D0012000F0DDFB06B071
:103A100010BD00F0A5FA06B010BD9DED021B9DED96
:103A2000000B012000F0D0FB51EC100B81F00041A5
:103A300006B041EC100B10BD00F092FA51EC100BE7
:103A400081F0004106B041EC100B10BD00000000F9
:103A50000000000000000000FB21E93F0000F07FB3
:103A600010B52F499FED2C1B2DED020B84B005984E
:103A700020F000408842DCBF00209DED040B32DDC9
:103A80002849884209D1049840B94FF0010000F05C
:103A90006FFC00F03DFC06B010BD05DB9DED040B96
:103AA00000F02AFC06B010BD68469DED040B00F046
:103AB0003BF810F0030011D0012818D09DED021B37
:103AC0009DED000B02281AD000F04AFA51EC100BC1
:103AD00081F0004106B041EC100B10BD9DED021BC2
:103AE0009DED000B012000F06FFB06B010BD9DEDB9
:103AF000021B9DED000B00F033FA06B010BD012053
:103B000000F062FB51EC100B81F0004106B041EC7B
:103B1000100B10BD000000000000000000000000BD
:103B2000FB21E93F0000F07F2DE9F14F04462DED28
:103B3000020B2DED088B8AB09FEDE70B80ED020B99
:103B4000139EE74826F0004585420ADC9DED120BE6
:103B5000002084ED000B0AB0BDEC088B03B0BDE87B
:103B6000F08FE0489FEDE0AB9FEDE1BBA84247DD61
:103B7000E14F9FEDE39B9FEDE48B9DED120B53EC2A
:103B80001A2B51EC100B002E1CDDFCF71DFC41EC38
:103B9000100BBD4208D053EC1B2B51EC100BFCF763
:103BA00013FCC4E900010BE053EC192B51EC100B92
:103BB000FCF70AFC53EC182BFCF706FCC4E90001E7
:103BC0000120C8E7FCF75FFB41EC100BBD4208D0B9
:103BD00053EC1B2B51EC100BFCF755FBC4E9000117
:103BE0000BE053EC192B51EC100BFCF74CFB53EC96
:103BF000182BFCF748FBC4E900014FF0FF30AAE79F
:103C0000C348A84279DB9DED120B51EC100B00F07C
:103C10001BFD41EC180B9FEDC00B53EC102BFCF778
:103C2000D9FB9FEDBF1B53EC112BFCF72CFBFCF7D2
:103C3000D0FC0746FCF7AFFC41EC190B53EC1A2BF8
:103C4000FCF7C8FB53EC182BFCF7C1FB41EC180B3D
:103C500053EC1B2B51EC190BFCF7BCFBDFF8C8A293
:103C600041EC100B4FEA15580125FA4453EC102B88
:103C700051EC180BFCF7A8FB032DC4E900013DD063
:103C8000C1F30A5005EB4511A8EB00001139814240
:103C900034DA0AEB051BB0EE48AA9BED000BF0EE00
:103CA00068AA53EC102B51EC190BFCF793FB41EC79
:103CB0001B0B51EC1A0B53EC1B2BFCF785FB41EC57
:103CC000180B51EC1A0B53EC182BFCF77DFB53EC43
:103CD0001B2BFCF779FB9BED020B41EC1A0B53EC11
:103CE000102B51EC190BFCF775FB53EC1A2BFCF75E
:103CF0006BFB41EC100B6D1CB8E70EE0002EA8BF6B
:103D00003846BFF628AF94ED000B51EC100B81F054
:103D10000041C4E9000178421DE7C6F3130040F4F6
:103D2000801EC6F30A50A0F2F530471100F01F05BF
:103D3000C5F12000DDF848B00890002006900790FB
:103D40000520EC467949002D07EB0002794408BFB5
:103D500051F8221009D051F8223001EB8201AB401A
:103D60004A68089922FA01F11943A1FB0E26A1FB2A
:103D70000B131A449A4234BF0123002303EB0608B5
:103D80000CEB8003D3E901A60E448E4234BF01211F
:103D9000002192448A4411B1924502D903E0924530
:103DA00001D2012100E00021C3E901A641444CF801
:103DB0002010011EA0F10100C4DC029800F10050A7
:103DC000850F0298DDE903678000DDF81480FCF7B9
:103DD000E2FB41EC1A0B3046FCF7EEFB9FED541B67
:103DE00053EC112BFCF7F6FA41EC1B0B3846FCF7B1
:103DF000E3FB9FED511B53EC112BFCF7EBFA41EC6D
:103E0000180B4046FCF7D8FB9FED4D1B53EC112BD4
:103E1000FCF7E0FA41EC190B51EC180B53EC192BA1
:103E2000FCF731FA53EC1B2BFCF72DFA53EC1A2B51
:103E3000FCF729FACDE90801002008909DED080B58
:103E400053EC1A2B51EC100BFCF7BEFA53EC1B2B66
:103E5000FCF7BAFA53EC182BFCF7B6FA53EC192B13
:103E6000FCF7B5FA9FED381B53EC112BFCF7B2FAB7
:103E70009FED370B41EC180B53EC102B9DED080B0D
:103E800051EC100BFCF7A6FA53EC182BFCF7FBF9DE
:103E90009FED310B41EC180B53EC102B9DED080BF3
:103EA00051EC100BFCF796FA53EC182BFCF7EBF9DE
:103EB00041EC100B139810F0004F06D06D4251ECFE
:103EC000100B81F0004141EC100B284684ED000BF3
:103ED00041E60000000000000000000000000000BB
:103EE000FB21E93F7CD9024000004054FB21F93F0F
:103EF0003163621A61B4D03DFB21F93F000000003C
:103F00000000601A61B4D03D7370032E8A19A33B80
:103F1000FB2139410000000083C8C96D305FE43FD8
:103F2000000000000000E03F2A0E0000780D0000B5
:103F3000000000000000103E000000000000103CE7
:103F4000000000000000103A182D4454FB21F93DF8
:103F50003326A611460B113C00000054FB21F93D0D
:103F600010B52DED040B2DED088B82B0B0EE419A0B
:103F7000F0EE619A0B9820F000449FED4BABB4F14A
:103F8000795F11DA9DED0A0B51EC100BFCF721FB68
:103F9000002801BFB0EE4A0AF0EE6A0A02B0BDEC9A
:103FA000088B04BF04B010BD9DED0A0B53EC102B21
:103FB00051EC100BFCF70EFA41EC180B3C480621B3
:103FC000B0EE480AF0EE680A784400F081F853EC4D
:103FD000182B51EC100BFCF7FDF99DED0A0B41EC91
:103FE0001B0B53EC192B51EC100BFCF7F3F941ECC4
:103FF000190B53EC1B2B51EC180BFCF7EBF953ECA2
:10400000192BFCF7E1F99FED2C0B41EC190B53EC4C
:10401000102B51EC180BFCF7DDF941EC100B284884
:10402000844210DA53EC192B51EC100BFCF7CCF94D
:1040300053EC1A2BFCF7CBF941EC100B02B0BDECA2
:10404000088B04B010BD1F48A042BCBF9FED1E1BD3
:104050008DED001B06DBA4F5001001900020009000
:104060009DED001B51EC100B53EC112BFCF7ACF940
:104070009DED000B41EC180B53EC102B51EC1A0B7F
:10408000FCF7A2F941EC1A0B53EC192B51EC180B6D
:10409000FCF79AF953EC1A2BFCF799F941EC100B49
:1040A000CCE7000000000000000000000000F03F2E
:1040B0009C0A000000000000000000000000E03F3B
:1040C0003333D33F0000E93F000000000000D23F3F
:1040D00070B504462DED028B4D1E00EBC500B0EE11
:1040E000408AF0EE608A90ED000B35F0060017D0A4
:1040F00053EC182B51EC100BFCF76CF941EC100B46
:104100006D1E04EBC50090ED001B51EC100B53EC41
:10411000112BFCF7B8F841EC100B35F00600E7D195
:10412000022D36D0042D1CD0062D1CBFBDEC028BF9
:1041300070BD53EC182B51EC100BFCF74BF994EDC0
:104140000A1B53EC112BFCF79EF853EC182BFCF7D1
:1041500041F994ED081B53EC112BFCF794F841EC5A
:10416000100B53EC182B51EC100BFCF733F994EDBA
:10417000061B53EC112BFCF786F853EC182BFCF7BD
:1041800029F994ED040B53EC102BFCF77CF841EC6F
:10419000100B53EC182B51EC100BFCF71BF994EDA2
:1041A000021B53EC112BFCF76EF853EC182BFCF7A9
:1041B00011F994ED001B53EC112BFCF764F8BDECE6
:1041C000028B41EC100B70BD31B504462DED040B94
:1041D0002DED0A8BB0EE41BAF0EE61BA0B989DED71
:1041E0000A0B20F00040B0F1795F0DDA51EC100BB2
:1041F000FFF7A6FB042808BF00F09AF89DED0A0B14
:10420000BDEC0A8B05B030BD53EC102B51EC100BFC
:10421000FCF7E0F841EC180B9DED0A0B53EC182B62
:1042200051EC100BFCF7D6F841EC190B2C48B0EE12
:10423000480AF0EE680A05217844FFF749FF9FED30
:104240002ACBB0EE40AAF0EE60AA9CB353EC1C2B34
:1042500051EC190BFCF7BEF841EC1C0B53EC1A2B7C
:1042600051EC190BFCF7B6F89FED210B41EC190B43
:1042700053EC102B51EC1B0BFCF7ACF853EC192B47
:10428000FCF7A2F853EC182BFCF7A4F853EC1B2B0B
:10429000FCF79AF853EC1C2BFCF796F89DED0A1BE3
:1042A00053EC112BFCF793F8BDEC0A8B05B041ECF5
:1042B000100B30BDFFE753EC1A2B51EC180BFCF739
:1042C00089F853EC1C2BFBF7DEFF53EC192BFCF7A2
:1042D00081F89DED0A1B53EC112BFBF7D4FFE3E7AC
:1042E0002409000000000000495555555555C5BF2B
:1042F000000000000000E03F10B553EC102B51EC23
:10430000100BFBF7C0FF41EC100B10BD00000000CC
:104310009FED050B10B553EC102B51EC100BFCF777
:10432000CBF841EC100B10BD0000000000000000B5
:104330009FED050B10B553EC102B51EC100BFCF757
:1043400049F841EC100B10BD000000000000001007
:1043500002E008C8121F08C1002AFAD1704770474E
:10436000002001E001C1121F002AFBD170470000AC
:104370000149086070470000280100202DE9F04144
:10438000A14C2DED0A8BD4E90401401C41F1000140
:10439000C4E904012088401C80B22080022801D199
:1043A00000202080994D6868FCF732F941EC1A0B27
:1043B000A868FCF72DF994ED020AD5ED030A41EC4B
:1043C000180BB8EEC00A30EE800A10EE100AFCF7A7
:1043D0001FF941EC190B9FED8ECBB0EE4C0AF0EEBD
:1043E0006C0AFFF73DFB53EC182B51EC100BFBF75D
:1043F000F1FF41EC1B0BB0EE4C0AF0EE6C0AFFF73C
:10440000CBFA53EC1A2B51EC100BFBF7E3FF53ECF8
:104410001B2BFBF738FF53EC192BFBF7D5FF05F1EE
:104420001004B0EE4C0AF0EE6C0AC4E90201FFF78A
:10443000B3FA53EC1A2B51EC100BFBF7CBFF41EC0A
:104440001B0BB0EE4C0AF0EE6C0AFFF709FB53ECC5
:10445000182B51EC100BFBF7BDFF53EC1B2BFBF79C
:10446000B3FF53EC192BFBF70EFFB0EE4C0AF0EE46
:104470006C0AC4E90401FFF7F3FA53EC182B51EC72
:10448000100BFBF7A7FF41EC1B0BB0EE4C0AF0EE54
:104490006C0AFFF781FA53EC1A2B51EC100BFBF767
:1044A00099FF53EC1B2BFBF78FFF53EC192BFBF7FA
:1044B000EAFEB0EE4C0AF0EE6C0AC4E90601FFF722
:1044C000CFFA53EC182B51EC100BFBF783FF41ECA8
:1044D000180BB0EE4C0AF0EE6C0AFFF75DFA51ECE7
:1044E000100B81F0004153EC1A2BFBF773FF53ECD8
:1044F000182BFBF769FF53EC192BFBF765FF41EC19
:10450000180B84ED088B94ED020B51EC100BFCF7AB
:10451000ABF8414D00EE100A85ED000A94ED040B56
:1045200051EC100BFCF7A0F83C4E00EE100A86EDA3
:10453000000A94ED060B51EC100BFCF795F8384C83
:1045400000EE100A51EC180B84ED000AFCF78CF811
:10455000344F00EE100A344887ED000A00F0F8F9F5
:10456000404200EE100A3148B8EEC00A85ED010A5B
:1045700000F0EEF900EE100A2D48B8EEC00A86ED04
:10458000010A00F0E5F9404200EE100A2948B8EEB1
:10459000C00A84ED010A00F0DBF900EE100A26499A
:1045A0002846B8EEC00A87ED010A00F057F9BDEEC3
:1045B000C00A1D4810EE101A00F0E0F91F493046FD
:1045C00000F04CF9BDEEC00A184810EE101A00F0C9
:1045D000D5F91B49204600F041F9BDEEC00A144848
:1045E00010EE101A00F0CAF91649384600F036F9F4
:1045F000BDEC0A8BBDEEC00A10EE101ABDE8F0410A
:104600000C4800F0BBB9000020000020400400204E
:10461000A83DAE028221E93F0805002048050020A0
:1046200088050020C8050020780400209C04002094
:10463000C0040020E4040020C0000020D4000020BA
:10464000E8000020FC00002082B0CDE9000121F04C
:10465000004001909DED000B02B051EC100B704733
:10466000FCF782FAFEF762F9FDF752FFFDF7A0FFB3
:10467000FEF70CF8FEF75AF8FEF796F8FEF7D2F8B8
:10468000FEF712F9FEF7F2F8FEF72CF9114800F0E8
:10469000C9F8114800F0C6F8104800F0C3F81048F7
:1046A00000F0C0F80F4800F027F80F4800F04AF873
:1046B0000E4800F06DF80E4800F090F8DFED0D0A9E
:1046C000B7EE000AB0EE601A00F052F9FFF756FE9E
:1046D000FCE70000080500204805002088050020B0
:1046E000C8050020780400209C040020C00400209D
:1046F000E40400200000000070B504460E4A0020CB
:104700000E4B042122600225C4E90110E060C4E9D7
:104710000503A583E08320621046094A2261FDF764
:1047200061FDA1682068FDF75DFDD4E90401BDE8E5
:104730007040FDF7BFBA00002C01002000000240CD
:104740001002002070B5082104460F4D00200D4ACC
:104750000C23C4E90021C4E90230C4E90515A18392
:10476000E08320621046094A2261FDF73BFDA16803
:104770002068FDF737FDD4E90401BDE87040FDF77E
:1047800099BA00002C010020000002401002002015
:1047900070B5104B044600200D4A0C210826C4E9D0
:1047A0000260C4E90503C4E900218025A583E083F4
:1047B0002062094820611046FDF714FDA1682068B9
:1047C000FDF710FDD4E90401BDE87040FDF772BAB1
:1047D0007801002000000240C401002070B50446AA
:1047E0000D4800210D4D042284E807000823E160F4
:1047F000C4E905350226A683094AE18322612162C4
:10480000FDF7F0FCA1682068FDF7ECFCD4E9040199
:10481000BDE87040FDF74EBA780100200004024068
:10482000C40100209FED0C0A002180ED000A80EDFC
:10483000010A80ED020A80ED030A80ED040A80ED92
:10484000050A80ED060A80ED070A80ED080A80F867
:104850003C108163416370470000000070B504465E
:1048600090F83C000D4620B194ED000A84ED080A52
:1048700070BD04F12400FCF71BF894ED031AB0EEB0
:10488000002A84ED041AD4ED020A2F48C4ED030A6D
:1048900094ED000AD4ED011A30EE610A84ED020AAB
:1048A000F0EE401A70EE602A40EEC21AD5ED010A11
:1048B00062EEA00A71EE811AC0ED010A95ED021AAE
:1048C00021EE001A80ED001A30EE811AD5ED030AB0
:1048D00061EEA00AC0ED020A31EE201A84ED061A3C
:1048E000D4ED080A30EE811A84ED081AD5ED040AD9
:1048F000F5EEC00AF1EE10FA13D0B4EEE01AF1EEC4
:1049000010FA01DBC4ED080AD5ED040A94ED081A8B
:10491000F1EE600AB4EEE01AF1EE10FA01D8C4ED3F
:10492000080AD4ED000AF5EEC00AF1EE10FA08D13B
:10493000B5EEC00AF1EE10FA03D19FED040A84ED42
:10494000080A94ED080A70BD100000200000000065
:1049500010B50446006AFBF71EFE41EC100B002068
:104960002062BDE8104051EC100BFBF732BE000096
:10497000014880EC030A70474404002030B5026807
:1049800000294FF0000342F210743DDBA14200DD2C
:1049900021464468C1605CB1042C0CD0082C0DD0B9
:1049A0000C2C0ED01268102C0ED0D16581683EE020
:1049B00012685163FAE712689163F7E71268D163EE
:1049C000F4E712681164F1E79165EFE700680068A9
:1049D000436330BD042909D008290BD00C290DD020
:1049E0000068102900680DD0C36530BD00680068FC
:1049F000836330BD00680068C36330BD0068006831
:104A0000036430BD836530BD42F21075E94200DBBE
:104A10004C428168C46069B104290ED008290FD0C6
:104A20000C2910D01029116810D0CC6541680029DC
:104A3000D0D1CBE711684C63F8E711688C63F5E7D8
:104A40001168CC63F2E711680C64EFE78C65EDE761
:104A5000000000000000000001020304060708092E
:104A600000000000010203044C5555555555A53F63
:104A70007751C1166CC156BF9015CB19A001FA3EF3
:104A8000AD529C804F7E92BEC4B1B4BD9EEE213E1D
:104A9000D43888BEE9FAA8BD00004054FB21F93F94
:104AA0003163621A61B4D03D0000601A61B4D03D38
:104AB0007370032E8A19A33B0000002E8A19A33BB2
:104AC000C14920259A837B390000000000000000C6
:104AD0006E83F9A22915444ED15727FCC0DD34F569
:104AE000999562DB4190433CAB6351FE61C5BBDEEF
:104AF0003A6E24B7E0D24D42EA2E49061C92D10903
:104B00001CEB1DFE3EA729B1F53582E88444BB2E7F
:104B100026709CE9417E5FB439D69139F4395383CC
:104B20008B5F849C3B28F9BDFF97F81F0F9805DE2B
:104B30008B112FEF1F6D0A5ACF7E366DB709CB2729
:104B4000663F464F2DEA5F9EC7BA27757BF1E5EBBE
:104B5000F739073DEA92528AB15FFB6B085D8D1F02
:104B6000A6F810111111813FD561C119A0012ABF0A
:104B70007DFEB157E31DC73EEB9C2B8AE6E55ABE8E
:104B80007CD5CF5A3AD9E53DA84B0008000000205B
:104B90002C01000050080008C84B00082C01002020
:104BA000DC080000604300083201821003B224F4E4
:104BB00024C0DA45239C421760406666E63F0C3B02
:084BC000A00C4614011B0000CB
:04000005080001C925
:00000001FF
