:020000040800F2
:10000000F8050020DD010008A719000841170008C5
:10001000A5190008E9020008BB2100080000000043
:10002000000000000000000000000000AB19000804
:10003000EB02000800000000A9190008AD19000833
:10004000F7010008F7010008F7010008F7010008B0
:10005000F7010008F7010008F7010008F7010008A0
:10006000F7010008F7010008F7010008F701000890
:10007000F7010008F7010008F7010008F701000880
:10008000F7010008F7010008F7010008F701000870
:10009000F7010008F7010008F7010008F701000860
:1000A000F7010008F7010008F7010008F701000850
:1000B000F7010008F7010008F7010008F701000840
:1000C000F7010008F7010008F7010008F701000830
:1000D000F7010008F7010008F7010008F701000820
:1000E000F7010008F7010008F7010008F701000810
:1000F000F7010008F7010008F7010008F701000800
:10010000F7010008F7010008F7010008F7010008EF
:10011000F7010008F7010008F7010008F7010008DF
:10012000F7010008F7010008F7010008F7010008CF
:10013000F7010008F7010008F7010008F7010008BF
:10014000F7010008F7010008F7010008F7010008AF
:10015000F7010008F7010008F7010008F70100089F
:10016000F7010008F7010008F7010008F70100088F
:10017000F7010008F7010008F7010008F70100087F
:10018000F7010008F7010008F7010008F70100086F
:10019000F7010008F7010008F7010008F70100085F
:1001A000F7010008F7010008F7010008F70100084F
:1001B000F7010008F7010008F7010008F70100083F
:1001C000F7010008F7010008DFF80CD000F07AF81A
:1001D00000480047FD210008F80500200648804738
:1001E00006480047FEE7FEE7FEE7FEE7FEE7FEE71C
:1001F000FEE7FEE7FEE7FEE7511A0008C901000826
:100200002DE9F05F0546002092469B46884606464B
:10021000814640241BE0284641464746224600F0DE
:1002200041F853465A46C01A914110D31146184618
:10023000224600F028F82D1A67EB01084F462246A7
:100240000120002100F01FF817EB00094E41201E8D
:10025000A4F10104DFDC484631462A464346BDE8A6
:10026000F09FD2B201E000F8012B491EFBD270478B
:100270000022F6E710B513460A4604461946FFF772
:10028000F0FF204610BD202A04DB203A00FA02F1DC
:10029000002070479140C2F1200320FA03F3194374
:1002A00090407047202A04DB203A21FA02F0002116
:1002B000704721FA02F3D040C2F120029140084376
:1002C00019467047064C074D06E0E06840F0010310
:1002D00094E8070098471034AC42F6D3FFF778FF54
:1002E0005022000870220008FEE7704772B6FEE751
:1002F0002DE9F84FDFF80CB2012403254FF00F0A67
:1003000000220BF1040E00BF0B6804FA02F6334022
:10031000B34278D10F7907F00307012F01D0022FE4
:100320001AD187684FEA4209D1F80CC005FA09F8DA
:1003300027EA08070CFA09FC4CEA070CC0F808C0C9
:10034000476891F804C0B743CCF3001C0CFA02FCD8
:100350004CEA070CC0F804C00E79F643B6070BD080
:10036000C6684FEA420C8F6805FA0CF826EA0806C0
:1003700007FA0CF73743C7600E7906F00306022E22
:1003800012D1D6084FEA427800EB860600960F6934
:10039000D6F820904FEAD8660AFA06FCB74029EA58
:1003A0000C063743009E37620F7906684FEA420C0D
:1003B00007F0030705FA0CF807FA0CF726EA080617
:1003C000374307604E6816F4403F1CD04E4E3768E6
:1003D00047F480473760366822F00308970706F431
:1003E00080460096494E3F0F4644B146D6F808680D
:1003F000DFF81C810AFA07FC404526EA0C0603D107
:100400004FF0000C41E076E0DFF808C1604502D112
:100410004FF0010C39E0DFF800C1604502D14FF028
:10042000020C32E0DFF8F4C0604502D14FF0030C5B
:100430002BE0DFF8ECC0604502D14FF0040C24E063
:10044000DFF8E0C0604502D14FF0050C1DE0DFF899
:10045000D8C0604502D14FF0060C16E0DFF8CCC0E2
:10046000604502D14FF0070C0FE0DFF8C4C06045D3
:1004700002D14FF0080C08E0DFF8B8C0604502D1A7
:100480004FF0090C01E04FF00A0C0CFA07FC4CEAA3
:10049000060CC9F808C84F68DBF80060FF0226EABE
:1004A000030600D51E437746CBF80060D1F804C0A0
:1004B000DEF800605FEA8C2C26EA030600D51E43B6
:1004C000DFF840C03E60ACF1040C4F68DCF800601F
:1004D000BF0326EA030600D51E430A4FCCF800608E
:1004E000083FD1F804C03E685FEACC3C26EA030628
:1004F00000D51E433E60521C102AFFF405AFBDE834
:10050000F88F0000083C01404438024000300140B0
:10051000000002400004024000080240000C0240BB
:10052000001002400014024000180240001C02406B
:10053000002002400024024001488068704700000B
:1005400000000020024881680278114481607047F1
:1005500000000020032010B500F060F80F2000F02C
:1005600005F800F023F8002010BD000070B50D4D17
:1005700004464FF47A700C4A29781268B0FBF1F007
:10058000B2FBF0F000F0BCFD48B9102C07D20022FD
:100590002146501E00F022F800206C6070BD012042
:1005A00070BD0000000000200C0000200A4808B5C3
:1005B000016841F080510160006800F080500090B7
:1005C0000548001D016841F480410160006800F4A5
:1005D0008040009008BD0000403802400E4BF0B44F
:1005E0001B680D46C3F30223C3F10706042E00D98E
:1005F0000426191D072901D2002300E0DB1E012477
:1006000004FA06F19C40491E2940641E994014409A
:100610002143F0BC01F0D2BD0CED00E0064900F032
:10062000070210B54FF6FF040868044B204040EA6B
:1006300002201843086010BD0CED00E00000FA0530
:100640001848F8B5016841F0805101600068164C07
:1006500000F080500090206840F480302060FFF768
:100660006BFF4FF47A76054605E000BFFFF764FFA5
:10067000401BB0420FD86068C003F7D5206840F433
:1006800000302060FFF758FF054606E0FFF754FFF3
:10069000401BB04201D90320F8BD60688003F5D546
:1006A0000020F8BD40380240007000402DE9F84FAE
:1006B00004460078DFF824944FF000063746C00760
:1006C0000ED0D9F8001021F40001C9F80010D9F8B3
:1006D0000010626B1143C9F80010606B00B901266D
:1006E000FE4D2068843500030ED5E16B286820F4A8
:1006F000401008432860E06BB0F5801F01D010B1B6
:1007000002E0012600E0012720684FF4800BC002C0
:100710000CD5216C286820F4400008432860206C28
:10072000584501D1012601E000B901272068C10127
:1007300000D50126800666D5E8483830016841F0CA
:10074000805101600068DFF898A300F080500090AD
:10075000DAF8001041F48071CAF80010FFF7ECFEDF
:10076000804605E0FFF7E8FEA0EB080064287DD88E
:10077000DAF80000C005F5D5DFF8608308F16808F5
:10078000D8F8000010F440702AD0218E01F4407196
:10079000814225D0D8F80010D8F8002021F440710B
:1007A00042F48032C8F80020D8F8002022F48032C9
:1007B000C8F80020C8F80010D8F80000C0070FD013
:1007C000FFF7BAFE824607E0FFF7B6FEA0EB0A018C
:1007D00041F288308142CAD8D8F800008007F3D5AA
:1007E000206BC0F3012103297ED0D9F8001021F439
:1007F000F811C9F80010228ED8F80010C2F30B02CD
:100800001143C8F800102078C00607D5286820F0EA
:10081000807028602868A16B084328602188AF4851
:100820008830490405D5626E016821F440311143D6
:1008300001602188090405D5A26E016821F44021D8
:10084000114301602168C90305D5E26E016821F4F6
:100850004011114301602168890305D5226F0168A9
:1008600021F4400111430160217800E016E14906BE
:1008700005D5626C016821F0030111430160217804
:10088000090605D5A26C016821F00C011143016035
:100890002188C90505D5E26C016821F030011143BA
:1008A00001602188890505D5226D016821F0C0010C
:1008B000114301602188490505D5626D016821F465
:1008C0004071114301602188090505D5A26D0168B9
:1008D00021F44061114301602188C90407D5E26D0C
:1008E000016821F4405100E04AE011430160218891
:1008F000890405D5226E016821F44041114301604D
:100900002168490205D5A26F016821F08061114379
:10091000016021684FF0006A890209D5E26F016821
:1009200021F0006111430160E16F514500D10127C1
:1009300021680A0700D50127490305D5626F0168C0
:1009400021F04071114301602168090206D5D4F8F5
:100950008020016821F0805111430160DFF884910B
:10096000012E02D0206880017ED5D9F800004E46C5
:1009700020F08060C9F80000FFF7DEFD80460FE040
:10098000594AD9F80030104023F4F8120243C9F84C
:10099000002030E7FFF7D0FDA0EB080064287DD8E9
:1009A00030680001F6D421784C487C30C90712D059
:1009B000616B81B9237A62680168D0F800C0920146
:1009C000C1F3014142EA0142CCF3036142EA016111
:1009D00041EA0371016021680A0303D5E26BB2F5B5
:1009E000801F04D0C9021AD5216C594517D16368FC
:1009F000016894F80CC002689B01C1F3014143EA0D
:100A00000141C2F3027241EA0C6141EA02710160E4
:100A10002968626A21F01F01521E11432960216872
:100A2000C90110D5238A62680168D0F800C092011C
:100A3000C1F3036142EA034242EA0162CCF302716C
:100A400042EA01710160216889010CD56168228A3E
:100A5000237B94F808C0890141EA024141EA03611D
:100A600041EA0C71016000E011E03168B04641F0EC
:100A700080613160FFF760FD064604E0FFF75CFD32
:100A8000801B64280AD8D8F800000001F6D56FB39F
:100A9000D9F800004E4620F0805000E07BE0C9F815
:100AA0000000FFF749FD074605E000BFFFF744FDE2
:100AB000C01B64286FD83068C0438000F6D5074853
:100AC000216880300A0301D5E26B1AB1C90225D52D
:100AD000216C19BB63690168277E08E00838024071
:100AE0000070004000380240FFFCFF0F5AE002682F
:100AF000C1F301419B0143EA0143C2F3027143EA9E
:100B0000076242EA0171016029686FF0FF03A26A7F
:100B100021F4F85103EB0222114329602168890274
:100B200012D5E16F51450FD1238C626901680768C6
:100B30009201C1F3036142EA034242EA0162C7F350
:100B4000027142EA017101602178090716D56169D5
:100B50000268D0F800C08B01277FC2F30362CCF398
:100B6000014143EA014141EA026141EA0771016042
:100B70002868E16A20F4403008432860306840F07B
:100B800080503060FFF7D8FC044607E0FFF7D4FC44
:100B9000001B642802D90320BDE8F88F3068C043E9
:100BA0008000F3D40020F7E72DE9F04705000F4659
:100BB00063D0444E306800F00F00B84209D230686C
:100BC00020F00F0038433060306800F00F00B8426A
:100BD00053D128683C4C810712D5400703D52068C3
:100BE00040F4E05020602878000703D5206840F4E6
:100BF00060402060A968206820F0F0000843206071
:100C00002878C0072AD0304968680839012810D0F0
:100C10000968022810D0890700292EDA216821F0FE
:100C2000030101432160FFF787FC804641F28839C8
:100C30000DE009688903EFE78901EDE7FFF77CFC28
:100C4000A0EB0801494502D90320BDE8F087686898
:100C5000216801F00C01B1EB800FEFD1306800F09A
:100C60000F00B8420BD9306820F00F0038433060D5
:100C7000306800F00F00B84201D00120E5E7287885
:100C8000400705D5E968206820F4E050084320605B
:100C90002878000706D52869216821F4604141EAD7
:100CA000C000206000F038F82168084AC1F3031141
:100CB000515CC8400649086006480068FFF756FCCA
:100CC0000020C2E7003C02400838024038220008F9
:100CD0000C00002004000020044905480968006851
:100CE000044AC1F38221515CC84070470838024071
:100CF0000C000020482200080449054809680068E3
:100D0000044AC1F34231515CC84070470838024080
:100D10000C00002048220008154910B51548096844
:100D200011F00C0213D01449042A0FD0082A0ED156
:100D30000F4C241F2268236802F03F025B0207D594
:100D40002068C0F38810A0FB010106E0084610BD32
:100D50002168C1F38811A1FB00010023FFF750FABD
:100D60002168C1F30141491C4900B0FBF1F010BDFD
:100D7000083802400024F40040787D012DE9F84F46
:100D800004004FF000076ED02078DFF868A3AAF1C6
:100D90000408C007A8F104054CD0DAF8001050464A
:100DA000C1F38101012908D00068C0F38100022845
:100DB0000AD1D8F80000400206D52868800339D54A
:100DC00060680028DFD035E06068B0F5803F0BD068
:100DD00010B1B0F5A02F11D0286820F48030286021
:100DE000286820F4802002E0286840F480302860E1
:100DF000606890B1FFF7A0FB06460AE0286840F45F
:100E000080202860F0E700BFFFF796FB801B642876
:100E100072D828688003F7D50CE0FFF78DFB0646F3
:100E200005E000BFFFF788FB801B6428F0D8286826
:100E30008003F7D42078800742D5DAF800105046B6
:100E400011F00C0F08D00068C0F3810002280BD10C
:100E5000D8F80000400207D42868800718D5E06859
:100E6000012800D114E041E1E0680028286817D08B
:100E700040F001002860FFF75FFB064605E000BF79
:100E8000FFF75AFB801B0228C2D828688007F7D5D5
:100E90002069296821F0F80141EAC00028600FE0CC
:100EA00020F001002860FFF747FB064605E000BF81
:100EB000FFF742FB801B02281ED828688007F7D462
:100EC0002078000729D58B4861696C30002981465C
:100ED000016812D041F001010160FFF72DFB0646C9
:100EE00005E000BFFFF728FB801B022804D8D9F8D3
:100EF00000008007F6D510E089E021F001010160D3
:100F0000FFF71AFB064604E0FFF716FB801B0228DA
:100F10007DD8D9F800008007F6D4207840076BD53B
:100F2000DFF8D09109F13809D9F80000C0000BD4DE
:100F3000D9F8001041F08051C9F80010D9F800002C
:100F4000012700F0805000906B480168C90512D459
:100F50000168834641F480710160FFF7EDFA0646AF
:100F600005E000BFFFF7E8FA801B64284FD8DBF8E4
:100F70000000C005F6D55F4EA068683601280AD08B
:100F800008B1052811D0306820F0010030603068C9
:100F900020F0040002E0306840F001003060A068FA
:100FA000A0B1FFF7C9FA83460CE0306840F00400B6
:100FB0003060F0E7FFF7C0FAA0EB0B0141F2883098
:100FC000814266D830688007F4D50EE0FFF7B4FAA6
:100FD000834607E0FFF7B0FAA0EB0B0141F288303F
:100FE000814256D830688007F4D42FB1D9F8001068
:100FF00021F08051C9F80010A069C8B3DAF80010D8
:10100000C1F3810102294BD00228286800E040E0AA
:1010100020F08070286003D0FFF78EFA04463BE092
:10102000FFF78AFA064604E0FFF786FA801B0228DB
:101030002FD828688001F7D4D4E90962D4E90701E0
:101040002E4B570894F82C20084303EB074343EA40
:101050008611084340EA026040F00050C8F80000E2
:10106000286840F080702860FFF766FA044606E0C2
:101070003EE000BFFFF760FA001B022809D828688D
:101080008001F7D534E000BFFFF756FA001B0228B5
:1010900002D90320BDE8F88F28688001F4D427E046
:1010A0000128D8F8000021D0E16900F480028A42CA
:1010B0001CD1216A00F03F028A4217D1626A47F6CA
:1010C000C0710140B1EB821F10D1A16A4FF0FF3215
:1010D00000F4403302EB5101B3EB014F06D194F819
:1010E0002C1000F07060B0EB016F01D00120D1E74F
:1010F0000020CFE708380240007000400000FFFFEA
:10110000401EB0F1807F10B501D3012010BD4FF01B
:10111000E02460610F21601701F050F80020A06109
:101120000721216110BD00002DE9F04390F83C201B
:10113000012A42D0012280F83C2051F80C4BDFF804
:1011400080804FF0000991E8680051E9022723F4FC
:101150004073B1F80CC03B43CF6923F48063134361
:10116000026823F40063234323F4805343EA050316
:1011700023F4005343EA060323F4804343EA0703BE
:101180000C3923F47023424543EA0C4302D00D4C42
:10119000A2420CD18D8C23F47006D1E9073446EAC3
:1011A000055121F08071194321F0007323435364EA
:1011B00080F83C900020BDE8F0830220FBE70000AF
:1011C0000000014000040140F0B590F83C20012AE5
:1011D0003BD01F4E012480F83C40022280F83D2085
:1011E00002681C4D5368B242D2F808C001D0AA422E
:1011F00003D14F6823F470033B430F6823F070035F
:101200001F4357600268B24213D0B2F1804F10D032
:10121000114B9A420DD0114B9A420AD0104B9A4270
:1012200007D0AA4205D00F4B9A4202D00E4B9A42E9
:1012300004D189682CF0800319439160002180F863
:101240003D4080F83C100846F0BD0220F0BD000093
:10125000000001400004014000040040000800407C
:10126000000C0040004001400018004010B586B05E
:10127000044614216846FEF7FBFF0E4920688842A9
:1012800016D10D48016841F010010160006801238A
:10129000022200F01000059000204FF4D44100918C
:1012A0006946CDE90120CDE903030448FFF720F8A2
:1012B00006B010BD0000014030380240001002406E
:1012C00070B5044690F83C0000260D4601280BD06E
:1012D000012084F83C000C2A4AD007DC82B1042AA1
:1012E00020D0082A06D131E0022070BD102A53D048
:1012F000142A63D00126002084F83C00304670BDDB
:10130000206800F021FC2068816941F008018161BA
:101310002068816921F00401816120682A6981695E
:10132000114311E0206800F049FC2068816941F414
:10133000006181612068816921F480618161206898
:101340002969826942EA01218161D4E7206800F0BD
:1013500071FC2068C16941F00801C1612068C16960
:1013600021F00401C16120682A69C169114311E0BB
:10137000206800F09BFC2068C16941F40061C161F4
:101380002068C16921F48061C16120682969C2694E
:1013900042EA0121C161AEE7206800F0B3FC206899
:1013A000416D41F0080141652068416D21F0040163
:1013B000416520682A69416D114311E0206800F001
:1013C000CDFC2068416D41F4006141652068416DAC
:1013D00021F48061416520682969426D42EA01215A
:1013E000416588E710B5040003D094F83D0010B1C2
:1013F00007E0012010BD002084F83C00204600F0EA
:1014000023F8022084F83D002068211D00F028FB0D
:10141000012084F8480084F83E0084F83F0084F8F6
:10142000400084F8410084F8420084F8430084F8C6
:10143000440084F8450084F8460084F8470084F8A6
:101440003D00002010BD000008B500680649884234
:1014500008D10648016841F001010160006800F010
:101460000100009008BD0000000001404438024027
:1014700010B504464FF0020269B1042912D00829C0
:1014800017D00C291CD0102921D094F84300012832
:1014900024D0012010BD94F83E000128F9D184F831
:1014A0003E201DE094F83F000128F2D184F83F204F
:1014B00016E094F840000128EBD184F840200FE0BA
:1014C00094F841000128E4D184F8412008E094F820
:1014D00042000128DDD184F8422001E084F8432055
:1014E0000122206800F022FB17492068174A884231
:1014F00001D0904203D1436C43F40043436420681D
:10150000884213D0B0F1804F10D0114988420DD0DD
:10151000104988420AD01049884207D0904205D02D
:101520000E49884202D00E49884207D181680D4A8F
:101530001140062906D0B1F5803F03D0016841F083
:1015400001010160002010BD0000014000040140C5
:101550000004004000080040000C00400040014032
:10156000001800400700010010B5040002D0E06F31
:1015700010B107E0012010BD002084F8780020465B
:1015800000F026F82420E0672068016821F00101BE
:101590000160204600F094FC0128ECD0606A10B194
:1015A000204600F007FC2068416821F4904141602A
:1015B0002068816821F02A0181602068016841F07B
:1015C000010101602046BDE8104000F057BC00005A
:1015D0002DE9F04FA7B00546142121A8FEF748FEDB
:1015E00084216846FEF744FE4F4C022651490327EA
:1015F0002868103CDFF830810025DFF830A18842F0
:10160000DFF82CB14FF0080938D10015159500907E
:101610006846FFF74BF808B1FEF768FED8F80010EF
:1016200041F48011C8F80010D8F8000000F48010D0
:101630002690206840F004002060206800F004003C
:101640002690206840F008002060206821A923959A
:101650004C4600F0080026904FF48050CDE921065A
:10166000CDE924795046FEF743FE04202395CDE9C9
:101670002106CDE9247421A9584628E02E49884244
:101680002AD18015139500906846FFF70FF808B12E
:10169000FEF72CFED8F8001041F48021C8F80010A5
:1016A000D8F8000000F480202690206840F0080060
:1016B000206020680721239500F008002690CDE9DE
:1016C00024714FF44070CDE9210621A95846FEF758
:1016D0000FFE27B0BDE8F08F18498842F9D1C01439
:1016E000169500906846FEF7E1FF08B1FEF7FEFD93
:1016F0000D48001D016841F020010160006800F004
:1017000020002690206840F0040020602068C0215E
:10171000CDE9211600F0040021A9CDE92590CDE9FD
:1017200023575046D3E700004038024000080240EB
:10173000000C0240005000400048004000140140EE
:10174000FEE70000F0B587B014216846FEF790FD73
:101750002D48016841F080010160016801F08001BD
:101760000591016841F001010160016801F001018A
:101770000591016841F002010160016801F0020178
:101780000591016841F010010160016801F010014C
:101790000591016841F008010160016801F008014C
:1017A0000591016841F004010160006800240225F0
:1017B000164F00F0040005908A2069468DE831003C
:1017C0003846FEF795FD0126694620200090CDE9B8
:1017D0000154CDE903463846FEF78AFD0C4F6946B1
:1017E000CDE9005438460295FEF782FD40F60840E8
:1017F0000090CDE90154CDE9034669463846FEF72D
:1018000077FD07B0F0BD0000303802400000024014
:101810000004024010B596B0002468461C211294C2
:1018200013941494FEF724FD2C2107A8FEF720FD45
:101830002E48D7222C4942F20F7380E81600C0E9E7
:10184000033444618461FFF7CDFD08B1FEF74EFD1E
:10185000264812A9129413941494FFF7B5FC08B10A
:10186000FEF744FD60206946CDE900041F480022D0
:1018700002940394049405940694FFF721FD08B1A3
:10188000FEF734FD194804226946FFF719FD08B137
:10189000FEF72CFD154808226946FFF711FD08B137
:1018A000FEF724FD11480C226946FFF709FD08B137
:1018B000FEF71CFD4FF400500794089409940103AF
:1018C0000A94CDE90B40CDE90E41084807A90D94D3
:1018D00010941194FFF728FC08B1FEF707FD0348A8
:1018E000FFF7C4FC16B010BD00000140100000203E
:1018F0000D48002110B50B4C0C224FF4E13304606D
:10190000C0E90131C160C0E904128161C1610162B5
:101910004162FFF729FE002803D0BDE81040FEF722
:10192000E5BC10BD005000405C0000200D480021C7
:1019300010B50B4C0C224FF4E1330460C0E90131C7
:10194000C160C0E904128161C16101624162FFF7B7
:101950000BFE002803D0BDE81040FEF7C7BC10BD49
:1019600000480040E40000200D48002110B50B4C59
:101970000C224FF4E1330460C0E90131C160C0E9D9
:1019800004128161C16101624162FFF7EDFD00282F
:1019900003D0BDE81040FEF7A9BC10BD0014014003
:1019A0006C010020FEE7FEE770477047FEF7CABDF6
:1019B00030B593B030216846FEF75AFC14210CA8CC
:1019C000FEF756FC2048016841F080510160006834
:1019D00000F0805011901D48016841F440410160C1
:1019E000006800250DF1200C0224009400F4404012
:1019F00011900822D823CDE9064510218CE81C005F
:101A000001200B94CDE903016846FFF7B7F908B14F
:101A100072B6FEE7FEF714FE08B172B6FEE74FF4A9
:101A200080524FF4A0510F20CDE90F120CAA0721CC
:101A300082E831000CA8FFF7B7F8002801D072B691
:101A4000FEE713B030BD0000403802400070004097
:101A50000248016841F470010160704788ED00E0C0
:101A6000F0B5274B4FF0804E264D02689842264E27
:101A7000264F274C09D0704507D0A84205D0B04268
:101A800003D0B84201D0A04205D1D1F804C022F061
:101A900070024CEA020298421BD0704519D0A8424D
:101AA00017D0B04215D0B84213D0A04211D0194D72
:101AB000A8420ED0184DA8420BD0184DA84208D00D
:101AC000174DA84205D0174DA84202D0164DA84286
:101AD00003D1CD6822F440722A434D6922F080027E
:101AE0002A43026098428A68C2620A68826201D010
:101AF000A04201D10969016301214161F0BD0000EB
:101B0000000001400004004000080040000C0040BC
:101B100000040140004001400044014000480140F1
:101B200000180040001C00400020004010B5046A6E
:101B3000012301F01F018B409C4304628A40016A2B
:101B40001143016210BD0000F0B5026ADFF860C009
:101B5000184F22F00102DFF860E00262066A426874
:101B6000836926F002060D68B8428C6803EA0C030C
:101B700023F0030344EA060445EA030501D0704557
:101B800005D1CB6824F00804234323F00404B842B1
:101B900001D0704505D122F44076D1E905323343B6
:101BA0001A4342608561496841630462F0BD0000E8
:101BB0008FFFFEFF0000014000040140F0B5026A03
:101BC000194E1A4C22F01002DFF864E00262056A36
:101BD0004368826925F02005D1F808C0A0420F684B
:101BE00002EA060222F4407245EA0C1542EA072294
:101BF00001D0704506D1CE6825F0800545EA06156E
:101C000025F04005A04201D0704507D1D1E9054635
:101C100023F4406343EA840343EA8603436082611A
:101C2000496881630562F0BDFF8FFFFE000001403F
:101C300000040140F0B5026A194F1A4E22F4807276
:101C4000DFF864E00262056A4368C26925F4007542
:101C5000D1F808C0B0420C6802EA070222F0030281
:101C600045EA0C2544EA020401D0704506D1CF684C
:101C700025F4006242EA072222F48065B04201D0D6
:101C8000704507D123F44052D1E9053642EA0312E8
:101C900042EA06134360C4614968C1630562F0BD4E
:101CA0008FFFFEFF0000014000040140F0B5026A12
:101CB000124B114F22F4805298420262046A426829
:101CC000C36924F400548E680D6803EA070323F403
:101CD000407344EA063443EA052302D0084DA84283
:101CE00004D14D6922F4804242EA85124260C36108
:101CF000496801640462F0BDFF8FFFFE00000140EF
:101D000000040140F0B5026ADFF844C022F48032DA
:101D10000262056A4268446D25F400350E8960450B
:101D20000C4F0B6804EA070445EA064543EA04033E
:101D300002D0094CA04204D14C6922F4803242EA1C
:101D4000042242604365496881650562F0BD000078
:101D5000000001408FFFFEFF00040140F0B5026A61
:101D6000DFF844C022F480120262046A4268436DC4
:101D700024F400140E8960450C4F0D6803EA070334
:101D800044EA065443EA052302D0094DA84204D18F
:101D90004D6922F4802242EA852242604365496807
:101DA000C1650462F0BD000000000140FF8FFFFE2E
:101DB0000004014090F82410C90706D00168836A26
:101DC0004A6822F400321A434A6090F824108907C6
:101DD00006D50168C36A4A6822F480321A434A6011
:101DE00090F82410490706D50168036B4A6822F46D
:101DF00080221A434A6090F82410090706D501682A
:101E0000436B4A6822F400421A434A6090F8241057
:101E1000C90606D50168836B8A6822F480521A438A
:101E20008A6090F82410890606D50168C36B8A6819
:101E300022F400521A438A6090F82410490611D502
:101E40000168036C4A6822F480121A434A60016CEC
:101E5000B1F5801F06D10168436C4A6822F4C002C4
:101E60001A434A6090F82410090606D50168826C6E
:101E7000486820F4002010434860704738B50025BA
:101E80000446C0F88450FEF757FB034620680068FC
:101E900000070BD56FF07E400090002220464FF4E3
:101EA000001100F025F908B1032038BD2020E067BB
:101EB000C4F8800025666566002084F8785038BD37
:101EC0002DE9F04104460368C2698168D4E90450F1
:101ED000DFF8F0C17C4E29431F68002510437B4A80
:101EE000014307EA0C070F431F604FF400402168CD
:101EF000E7684B6823F440533B434B602768A36972
:101F0000216AD7F808C019432CF430630B43BB6037
:101F10002168B1420AD1116811F0030152D00129A0
:101F20007CD0022971D003296ED184E0684B99429C
:101F30000AD1116811F00C0167D0042965D0082975
:101F400075D00C2960D176E0624B99420AD11168B4
:101F500011F0300159D010296BD0202967D03029D9
:101F600052D168E05C4B99420AD1116811F0C0016E
:101F70004BD040295DD0802959D0C02944D15AE0A6
:101F8000564B99420DD1116811F440713DD0B1F515
:101F9000807F4ED0B1F5007F49D0B1F5407F33D17D
:101FA00049E04F4B99420FD1116811F4406109D0BB
:101FB000B1F5806F3DD0B1F5006F38D0B1F5406F0D
:101FC00022D138E0012120E0464B99420DD1116821
:101FD00011F4405119D0B1F5805F2AD0B1F5005FFE
:101FE00025D0B1F5405F0FD125E03F4B99420BD191
:101FF000116811F4404108D0B1F5804F19D08142E9
:1020000015D0B1F5404F16D01021E369374A4FF68D
:10201000EF7683422ED1092949D201E009E006E09A
:10202000DFE801F00B0E114513454545160002216E
:10203000EBE70421E9E70821E7E7FEF74DFE06E0BC
:10204000FEF75AFE03E0104602E0FEF765FE78B3A5
:102050006168400000EB5100B0FBF1F0A0F110010D
:10206000B14224D84FF6F0732168C0F34202184001
:10207000104320E009291AD2DFE801F005080B1906
:102080000D1919191000FEF727FE06E0FEF734FEC1
:1020900003E0104602E0FEF73FFE48B1616800EB46
:1020A0005100B0FBF1F0A0F11001B14201D90125BE
:1020B00002E0216880B2C8600020A066E066284681
:1020C000BDE8F081F369FFEF001001409038024055
:1020D0000044004000480040004C004000500040D8
:1020E0000014014000780040007C00400024F4000F
:1020F0002DE9F0479A4617460E460446089D4FF0D4
:1021000000094FF020084CE0681C4AD0FEF714FA92
:10211000A0EB0A00A8422AD84DB3206801684907FD
:102120003FD5C069C04300053BD421684FF400602F
:102130000862216851E8000F20F4D07041E80002E5
:10214000002AF6D12068083050E8001F21F0010174
:1021500040E80012002AF5D1C4F87C8084F8789019
:10216000C4F88080C4F884800320BDE8F08720682C
:1021700050E8001F21F4D07140E80012002AF6D187
:102180002068083050E8001F21F0010140E80012EB
:10219000002AF5D1C4F87C8084F87890C4F8808057
:1021A000E2E72068C06936EA000004D00020B842A7
:1021B000AAD00020D9E70120F9E7FEE709070028A7
:1021C0004FEA116104DB00F1E02080F80014704751
:1021D00000F00F0000F1E02080F8141D704702E0CD
:1021E00008C8121F08C1002AFAD1704770470020A2
:1021F00001E001C1121F002AFBD17047FEF7AAF9C6
:10220000FFF7D6FBFFF79EFAFFF704FBFFF78EFB05
:10221000FFF76EFBFFF7A8FB06480421FFF728F93C
:102220000448002241F288310368996300684263E0
:10223000FEE7000010000020000000000000000089
:10224000010203040607080900000000010203045C
:10225000702200080000002010000000DE210008AD
:102260008022000810000020E8050000EE21000890
:102270000100000010000000000000000024F40035
:04000005080001C925
:00000001FF
