:020000040800F2
:1000000070080020DD0100080B2B0008F526000811
:10001000092B0008E9070008833D000800000000E4
:100020000000000000000000000000000F2B00088E
:10003000EB070008000000000D2B0008112B000842
:10004000F7010008F7010008F7010008F7010008B0
:10005000F7010008F7010008F7010008F7010008A0
:10006000F7010008F7010008F7010008F701000890
:10007000F7010008F7010008F7010008F701000880
:10008000F7010008F7010008F7010008F701000870
:10009000F7010008F7010008F7010008F701000860
:1000A000F7010008F7010008F7010008F701000850
:1000B000F70100082D2F0008F7010008F7010008DC
:1000C000F7010008F7010008F7010008F701000830
:1000D000F7010008F7010008F7010008F701000820
:1000E000F7010008F7010008F7010008F701000810
:1000F000F7010008F7010008F7010008F701000800
:10010000F7010008F7010008D5320008F7010008E0
:10011000F70100081137000815330008F70100083F
:10012000F7010008F7010008F7010008F7010008CF
:10013000F7010008F7010008F7010008F7010008BF
:10014000F7010008F7010008F7010008F7010008AF
:10015000F7010008F7010008F7010008F70100089F
:10016000F7010008F7010008F7010008F70100088F
:10017000F7010008F7010008F7010008F70100087F
:10018000F7010008F7010008F7010008F70100086F
:10019000F7010008F7010008F7010008F70100085F
:1001A000F7010008F7010008F7010008F70100084F
:1001B000F7010008F7010008F7010008F70100083F
:1001C000F7010008F7010008DFF80CD000F0FAFA98
:1001D00000480047B14600087008002006488047E4
:1001E00006480047FEE7FEE7FEE7FEE7FEE7FEE71C
:1001F000FEE7FEE7FEE7FEE7B52B0008C9010008B1
:100200002DE9F05F0546002092469B46884606464B
:10021000814640241BE0284641464746224600F0DE
:100220003AFA53465A46C01A914110D3114618461D
:10023000224600F021FA2D1A67EB01084F462246AC
:100240000120002100F018FA17EB00094E41201E92
:10025000A4F10104DFDC484631462A464346BDE8A6
:10026000F09FD2B201E000F8012B491EFBD270478B
:100270000022F6E710B513460A4604461946FFF772
:10028000F0FF204610BD2DE9FE4F804681EA0300B5
:10029000C00F0C46009021F0004123F00045B8EB60
:1002A0000200A94105D24046214690461C460B4615
:1002B000024623F00040104347D0270DC7F30A0041
:1002C000C3F30A510290401A019040286BDAC3F33D
:1002D000130040F4801B0098924620B10023D2EB1B
:1002E000030A63EB0B0B01985946C0F140025046DC
:1002F00000F0C2F906460D4650465946019A00F0F4
:10030000DAF910EB08006141002487EA115284EA0F
:10031000E7731A4340D0009A62B3019A012A4FEA68
:10032000075215DC001B61EB02014FF0004202EAAC
:100330000752CDE90042001C41F5801132462B46A0
:1003400000F0DAF903B0BDE8F08F40462146F9E746
:10035000001B61EB0201001C41F5801300185B419A
:100360002018A2F5001747EB030140EAD570B61933
:100370006D4111E06D084FEA360645EAC0754FEA57
:100380000752001B61EB0201001C41F58011490876
:100390004FEA30000019514132462B4603B0BDE808
:1003A000F04F00F09AB90098012240000023D0EBF2
:1003B000020263EBE073009821464FEAE074B8EB69
:1003C000000061EB0401E9E783F000435BE781F0A3
:1003D000004158E72DE9FE4F81EA030404F0004490
:1003E00021F0004100944FF0000B23F0004350EA4D
:1003F00001045ED052EA03045BD0C3F30A54C1F394
:100400000A552C44A4F2F3340194A0FB0254C1F326
:10041000130141F48011C3F3130343F4801301FB70
:10042000024400FB034E840A970A44EA815447EAD7
:100430008357A4FB076802958D0A05FB07854FEAE1
:10044000932C04FB0C542705029D4FEA065847EAFB
:100450001637B5EB08056EEB070C870E920E47EAD0
:10046000811742EA8312A7FB0201B6EB0B0164EB92
:1004700000042B0D43EA0C335E1844EB1C50DA46A3
:100480005146E7FB0201C5F313044FEA0B3343EA7D
:1004900014534FEA0432019C43EA0603A4F10C040E
:1004A0000294009CCDE900B400F026F903B0BDE849
:1004B000F08F00200146F9E72DE9F04D81EA0304B1
:1004C00004F0004B21F0004514464FF0000A23F0E1
:1004D000004150EA050220D054EA01021DD0C5F3C4
:1004E0000A570246C5F31303C1F31300C1F30A56BA
:1004F00040F4801543F48013A7EB0608101BD64682
:1005000008F2FD3873EB050002D308F1010801E0A1
:1005100092185B41B8F1000F03DA00200146BDE8F4
:10052000F08D00204FF48011064684460EE0171B24
:1005300073EB050705D3121B63EB050306434CEA77
:10054000010C49084FEA300092185B4150EA01075C
:10055000EDD152EA030012D082EA040083EA0501D9
:10056000084305D0101BAB4106D20122002306E050
:1005700000224FF0004302E06FF0010253101AEB2B
:1005800006004CEB085110EB0A0041EB0B01BDE8F3
:10059000F04D00F0A2B80EB5C10F80EAE07008443B
:1005A000CA07002140F233438DE80E000A460B468D
:1005B00000F0A2F803B000BD70B5C1F30A5201F01B
:1005C00000450024C1F3130140F2FF3341F48011D0
:1005D0009A4201DA002070BD40F233439A42A2F2FF
:1005E000334203DC524200F056F800E090402C43C6
:1005F000F1D0404270BD00F0004230F000400AD01F
:10060000C10D01F56071C0F3160042EA0151C20844
:1006100040071143704700200146704730B5041E63
:1006200071F1000404DB4FF00044404264EB01012F
:10063000141E73F1000405DB1C464FF000435242C8
:1006400063EB0403994208BF904230BD30B50B46BE
:10065000014600202022012409E021FA02F59D42F2
:1006600005D303FA02F5491B04FA02F52844151EC6
:10067000A2F10102F1DC30BD202A04DB203A00FAAD
:1006800002F1002070479140C2F1200320FA03F3E9
:10069000194390407047202A04DB203A21FA02F0E7
:1006A0000021704721FA02F3D040C2F120029140AC
:1006B000084319467047202A06DBCB17203A41FA37
:1006C00002F043EAE07306E041FA02F3D040C2F1DF
:1006D0002002914008431946704710B5141E73F16B
:1006E000000408DA401C41F1000192185B411A43F2
:1006F00001D120F0010010BD2DE9F04D92469B463E
:1007000011B1B1FA81F202E0B0FA80F220329046E3
:10071000FFF7B2FF04460F4640EA0A0041EA0B0128
:1007200053465A46084313D0114653EA010019D0E4
:10073000C8F140025046FFF7AEFF05460E46504650
:1007400059464246FFF798FF084305D0012004E0D0
:1007500020463946BDE8F08D0020054346EAE076A4
:100760002C4337430A986305E40AA0EB08000022F3
:10077000FD0A44EA47540A3002D500200146E9E761
:10078000010510196941DDE9084500196941BDE815
:10079000F04DA2E7C1F30A52C1F3130140F2FF3357
:1007A00041F480119A4202DA00200146704740F27B
:1007B00033439A42A2F2334202DC5242FFF76BBF4C
:1007C000FFF75ABF064C074D06E0E06840F0010312
:1007D00094E8070098471034AC42F6D3FFF7F8FCD2
:1007E0000448000824480008FEE7704772B6FEE798
:1007F000F0B52DED028B85B04178532941D130F908
:10080000031F9FED220A01EE101ADFED210A214A93
:10081000B8EEC11A21EE001A61EE208AC2ED018AFB
:10082000B0F9021001EE101AB8EEC11A21EE001A4A
:1008300021EE208A82ED028AB0F9040001EE100A4E
:10084000B8EEC11A21EE000A20EE200A82ED030A5A
:1008500010EE100AFFF7CFFE06460F4618EE100AFC
:10086000FFF7C9FE04460D4618EE900AFFF7C3FED7
:1008700041EC100B8DE8F00053EC102B06A003F0B8
:1008800081FA05B0BDEC028BF0BD0000000000381D
:1008900000003443B803002025662C25662C25660D
:1008A0000A0000002DE9F041876D044600F080F950
:1008B000064694F835000025022806D080206065A1
:1008C000012084F83450BDE8F0812068016821F0EF
:1008D000160101602068416921F080014161206CAE
:1008E00008B9A06C20B12068016821F008010160FE
:1008F0002068016821F0010101600CE000F058F966
:10090000801B052807D920216165032084F8350064
:1009100084F83450D7E720680068C007EED194F817
:100920005C203F2001219040B86084F83510002001
:1009300084F83450C7E790F83510022903D080219D
:10094000416501207047052180F835100068016875
:1009500021F0010101600020704700002DE9F84FEF
:10096000DFF80CB2012403254FF00F0A00220BF12F
:10097000040E00BF0B6804FA02F63340B34278D18C
:100980000F7907F00307012F01D0022F1AD18768D2
:100990004FEA4209D1F80CC005FA09F827EA08071E
:1009A0000CFA09FC4CEA070CC0F808C0476891F83B
:1009B00004C0B743CCF3001C0CFA02FC4CEA070C51
:1009C000C0F804C00E79F643B6070BD0C6684FEAEC
:1009D000420C8F6805FA0CF826EA080607FA0CF7AD
:1009E0003743C7600E7906F00306022E12D1D608EF
:1009F0004FEA427800EB860600960F69D6F8209001
:100A00004FEAD8660AFA06FCB74029EA0C063743D3
:100A1000009E37620F7906684FEA420C07F0030721
:100A200005FA0CF807FA0CF726EA080637430760C0
:100A30004E6816F4403F1CD04E4E376847F480474E
:100A40003760366822F00308970706F48046009660
:100A5000494E3F0F4644B146D6F80868DFF81C817E
:100A60000AFA07FC404526EA0C0603D14FF0000CB9
:100A700041E076E0DFF808C1604502D14FF0010C9B
:100A800039E0DFF800C1604502D14FF0020C32E0DE
:100A9000DFF8F4C0604502D14FF0030C2BE0DFF823
:100AA000ECC0604502D14FF0040C24E0DFF8E0C058
:100AB000604502D14FF0050C1DE0DFF8D8C060455D
:100AC00002D14FF0060C16E0DFF8CCC0604502D131
:100AD0004FF0070C0FE0DFF8C4C0604502D14FF0C3
:100AE000080C08E0DFF8B8C0604502D14FF0090CEF
:100AF00001E04FF00A0C0CFA07FC4CEA060CC9F8AE
:100B000008C84F68DBF80060FF0226EA030600D53C
:100B10001E437746CBF80060D1F804C0DEF80060D1
:100B20005FEA8C2C26EA030600D51E43DFF840C09E
:100B30003E60ACF1040C4F68DCF80060BF0326EAAD
:100B4000030600D51E430A4FCCF80060083FD1F8D9
:100B500004C03E685FEACC3C26EA030600D51E438B
:100B60003E60521C102AFFF405AFBDE8F88F00006C
:100B7000083C01404438024000300140000002407F
:100B80000004024000080240000C02400010024035
:100B90000014024000180240001C024000200240E5
:100BA000002402400069084000D001207047000086
:100BB00001488068704700000000002002488168FA
:100BC000027811448160704700000020032010B5B6
:100BD00000F06EF80F2000F005F800F023F8002078
:100BE00010BD000070B50D4D04464FF47A700C4AEC
:100BF00029781268B0FBF1F0B2FBF0F000F0CAFD0A
:100C000048B9102C07D200222146501E00F030F8BF
:100C100000206C6070BD012070BD0000000000204D
:100C20000C0000200A4808B5016841F080510160BD
:100C3000006800F0805000900548001D016841F4F4
:100C400080410160006800F48040009008BD000011
:100C500040380240002809DB410900F01F028900EA
:100C6000012001F1E0219040C1F80001704700002F
:100C70000E4BF0B41B680D46C3F30223C3F1070605
:100C8000042E00D90426191D072901D2002300E0F3
:100C9000DB1E012404FA06F19C40491E2940641E13
:100CA000994014402143F0BC03F07CB80CED00E007
:100CB000064900F0070210B54FF6FF040868044B20
:100CC000204040EA02201843086010BD0CED00E00F
:100CD0000000FA051848F8B5016841F0805101603C
:100CE0000068164C00F080500090206840F480307E
:100CF0002060FFF75DFF4FF47A76054605E000BF00
:100D0000FFF756FF401BB0420FD86068C003F7D50D
:100D1000206840F400302060FFF74AFF054606E0F7
:100D2000FFF746FF401BB04201D90320F8BD6068C1
:100D30008003F5D50020F8BD403802400070004027
:100D40002DE9F84F04460078DFF824944FF00006B0
:100D50003746C0070ED0D9F8001021F40001C9F8B9
:100D60000010D9F80010626B1143C9F80010606BD5
:100D700000B90126FE4D2068843500030ED5E16BD5
:100D8000286820F4401008432860E06BB0F5801F0D
:100D900001D010B102E0012600E0012720684FF4E5
:100DA000800BC0020CD5216C286820F44000084359
:100DB0002860206C584501D1012601E000B90127C7
:100DC0002068C10100D50126800666D5E848383084
:100DD000016841F0805101600068DFF898A300F0DD
:100DE00080500090DAF8001041F48071CAF80010C9
:100DF000FFF7DEFE804605E0FFF7DAFEA0EB080015
:100E000064287DD8DAF80000C005F5D5DFF86083E6
:100E100008F16808D8F8000010F440702AD0218E3C
:100E200001F44071814225D0D8F80010D8F8002094
:100E300021F4407142F48032C8F80020D8F8002034
:100E400022F48032C8F80020C8F80010D8F800005A
:100E5000C0070FD0FFF7ACFE824607E0FFF7A8FE01
:100E6000A0EB0A0141F288308142CAD8D8F80000CC
:100E70008007F3D5206BC0F3012103297ED0D9F878
:100E8000001021F4F811C9F80010228ED8F80010D3
:100E9000C2F30B021143C8F800102078C00607D532
:100EA000286820F0807028602868A16B08432860BB
:100EB0002188AF488830490405D5626E016821F465
:100EC0004031114301602188090405D5A26E0168F3
:100ED00021F44021114301602168C90305D5E26E68
:100EE000016821F44011114301602168890305D58F
:100EF000226F016821F4400111430160217800E074
:100F000016E1490605D5626C016821F00301114321
:100F100001602178090605D5A26C016821F00C0159
:100F2000114301602188C90505D5E26C016821F0F3
:100F30003001114301602188890505D5226D0168C2
:100F400021F0C001114301602188490505D5626D7A
:100F5000016821F44071114301602188090505D51C
:100F6000A26D016821F44061114301602188C90428
:100F700007D5E26D016821F4405100E04AE01143D9
:100F800001602188890405D5226E016821F4404161
:100F9000114301602168490205D5A26F016821F063
:100FA00080611143016021684FF0006A890209D510
:100FB000E26F016821F0006111430160E16F51456A
:100FC00000D1012721680A0700D50127490305D56B
:100FD000626F016821F040711143016021680902CC
:100FE00006D5D4F88020016821F0805111430160BA
:100FF000DFF88491012E02D0206880017ED5D9F8D7
:1010000000004E4620F08060C9F80000FFF7D0FDD8
:1010100080460FE0594AD9F80030104023F4F81206
:101020000243C9F8002030E7FFF7C2FDA0EB08003B
:1010300064287DD830680001F6D421784C487C3093
:10104000C90712D0616B81B9237A62680168D0F850
:1010500000C09201C1F3014142EA0142CCF30361B5
:1010600042EA016141EA0371016021680A0303D584
:10107000E26BB2F5801F04D0C9021AD5216C594524
:1010800017D16368016894F80CC002689B01C1F332
:10109000014143EA0141C2F3027241EA0C6141EAB3
:1010A000027101602968626A21F01F01521E11431A
:1010B00029602168C90110D5238A62680168D0F8C7
:1010C00000C09201C1F3036142EA034242EA0162B5
:1010D000CCF3027142EA01710160216889010CD5EB
:1010E0006168228A237B94F808C0890141EA0241A1
:1010F00041EA036141EA0C71016000E011E03168EE
:10110000B04641F080613160FFF752FD064604E0D1
:10111000FFF74EFD801B64280AD8D8F800000001B4
:10112000F6D56FB3D9F800004E4620F0805000E0AD
:101130007BE0C9F80000FFF73BFD074605E000BF74
:10114000FFF736FDC01B64286FD83068C0438000AD
:10115000F6D50748216880300A0301D5E26B1AB141
:10116000C90225D5216C19BB63690168277E08E097
:10117000083802400070004000380240FFFCFF0FBA
:101180005AE00268C1F301419B0143EA0143C2F303
:10119000027143EA076242EA0171016029686FF057
:1011A000FF03A26A21F4F85103EB022211432960E4
:1011B0002168890212D5E16F51450FD1238C6269F4
:1011C000016807689201C1F3036142EA034242EAFF
:1011D0000162C7F3027142EA0171016021780907D7
:1011E00016D561690268D0F800C08B01277FC2F371
:1011F0000362CCF3014143EA014141EA026141EA61
:10120000077101602868E16A20F4403008432860D3
:10121000306840F080503060FFF7CAFC044607E0B9
:10122000FFF7C6FC001B642802D90320BDE8F88F35
:101230003068C0438000F3D40020F7E72DE9F04781
:1012400005000F4663D0444E306800F00F00B842EE
:1012500009D2306820F00F0038433060306800F069
:101260000F00B84253D128683C4C810712D5400783
:1012700003D5206840F4E05020602878000703D5AB
:10128000206840F460402060A968206820F0F000E9
:10129000084320602878C0072AD030496868083998
:1012A000012810D00968022810D0890700292EDAF9
:1012B000216821F0030101432160FFF779FC80469A
:1012C00041F288390DE009688903EFE78901EDE70C
:1012D000FFF76EFCA0EB0801494502D90320BDE8E9
:1012E000F0876868216801F00C01B1EB800FEFD145
:1012F000306800F00F00B8420BD9306820F00F00C2
:1013000038433060306800F00F00B84201D001204F
:10131000E5E72878400705D5E968206820F4E05023
:10132000084320602878000706D52869216821F441
:10133000604141EAC000206000F038F82168084AA6
:10134000C1F30311515CC8400649086006480068B3
:10135000FFF748FC0020C2E7003C0240083802408A
:10136000EC4700080C000020040000200449054858
:1013700009680068044AC1F38221515CC840704783
:10138000083802400C000020FC47000804490548CA
:1013900009680068044AC1F34231515CC840704793
:1013A000083802400C000020FC470008154910B521
:1013B0001548096811F00C0213D01449042A0FD003
:1013C000082A0ED10F4C241F2268236802F03F0226
:1013D0005B0207D52068C0F38810A0FB010106E07E
:1013E000084610BD2168C1F38811A1FB000100234C
:1013F000FEF706FF2168C1F30141491C4900B0FB1B
:10140000F1F010BD083802400024F40040787D015E
:101410002DE9F84F04004FF000076ED02078DFF878
:1014200068A3AAF10408C007A8F104054CD0DAF8B3
:1014300000105046C1F38101012908D00068C0F3B3
:10144000810002280AD1D8F80000400206D5286899
:10145000800339D560680028DFD035E06068B0F5DA
:10146000803F0BD010B1B0F5A02F11D0286820F428
:1014700080302860286820F4802002E0286840F44A
:1014800080302860606890B1FFF792FB06460AE062
:10149000286840F480202860F0E700BFFFF788FB51
:1014A000801B642872D828688003F7D50CE0FFF70A
:1014B0007FFB064605E000BFFFF77AFB801B642830
:1014C000F0D828688003F7D42078800742D5DAF86E
:1014D0000010504611F00C0F08D00068C0F38100D6
:1014E00002280BD1D8F80000400207D428688007F2
:1014F00018D5E068012800D114E041E1E068002837
:10150000286817D040F001002860FFF751FB06461D
:1015100005E000BFFFF74CFB801B0228C2D82868FB
:101520008007F7D52069296821F0F80141EAC00059
:1015300028600FE020F001002860FFF739FB064625
:1015400005E000BFFFF734FB801B02281ED8286887
:101550008007F7D42078000729D58B4861696C3063
:1015600000298146016812D041F001010160FFF7B6
:101570001FFB064605E000BFFFF71AFB801B022891
:1015800004D8D9F800008007F6D510E089E021F0F2
:1015900001010160FFF70CFB064604E0FFF708FBC2
:1015A000801B02287DD8D9F800008007F6D4207867
:1015B00040076BD5DFF8D09109F13809D9F8000060
:1015C000C0000BD4D9F8001041F08051C9F80010C8
:1015D000D9F80000012700F0805000906B480168A6
:1015E000C90512D40168834641F480710160FFF798
:1015F000DFFA064605E000BFFFF7DAFA801B642831
:101600004FD8DBF80000C005F6D55F4EA0686836FD
:1016100001280AD008B1052811D0306820F0010057
:101620003060306820F0040002E0306840F00100D3
:101630003060A068A0B1FFF7BBFA83460CE03068C9
:1016400040F004003060F0E7FFF7B2FAA0EB0B01C6
:1016500041F28830814266D830688007F4D50EE0C8
:10166000FFF7A6FA834607E0FFF7A2FAA0EB0B010B
:1016700041F28830814256D830688007F4D42FB1C7
:10168000D9F8001021F08051C9F80010A069C8B342
:10169000DAF80010C1F3810102294BD00228286832
:1016A00000E040E020F08070286003D0FFF780FA6F
:1016B00004463BE0FFF77CFA064604E0FFF778FAC1
:1016C000801B02282FD828688001F7D4D4E909624A
:1016D000D4E907012E4B570894F82C20084303EB5C
:1016E000074343EA8611084340EA026040F0005095
:1016F000C8F80000286840F080702860FFF758FAAA
:10170000044606E03EE000BFFFF752FA001B022845
:1017100009D828688001F7D534E000BFFFF748FA00
:10172000001B022802D90320BDE8F88F2868800139
:10173000F4D427E00128D8F8000021D0E16900F4B2
:1017400080028A421CD1216A00F03F028A4217D1EE
:10175000626A47F6C0710140B1EB821F10D1A16AE5
:101760004FF0FF3200F4403302EB5101B3EB014F75
:1017700006D194F82C1000F07060B0EB016F01D02E
:101780000120D1E70020CFE7083802400070004078
:101790000000FFFF401EB0F1807F10B501D3012093
:1017A00010BD4FF0E02460610F21601702F0FAFADB
:1017B0000020A0610721216110BD7047704770476C
:1017C0002DE9F04390F83C20012A42D0012280F814
:1017D0003C2051F80C4BDFF880804FF0000991E875
:1017E000680051E9022723F44073B1F80CC03B4371
:1017F000CF6923F480631343026823F40063234317
:1018000023F4805343EA050323F4005343EA060319
:1018100023F4804343EA07030C3923F47023424541
:1018200043EA0C4302D00D4CA2420CD18D8C23F420
:101830007006D1E9073446EA055121F08071194359
:1018400021F000732343536480F83C900020BDE8EE
:10185000F0830220FBE7000000000140000401408B
:10186000F0B590F83C20012A3BD01F4E012480F8AF
:101870003C40022280F83D2002681C4D5368B24271
:10188000D2F808C001D0AA4203D14F6823F47003F4
:101890003B430F6823F070031F4357600268B24256
:1018A00013D0B2F1804F10D0114B9A420DD0114B92
:1018B0009A420AD0104B9A4207D0AA4205D00F4B49
:1018C0009A4202D00E4B9A4204D189682CF08003D0
:1018D00019439160002180F83D4080F83C10084693
:1018E000F0BD0220F0BD00000000014000040140F6
:1018F0000004004000080040000C0040004001408F
:101900000018004010B5040003D094F83D0010B159
:1019100007E0012010BD002084F83C00204600F0C4
:1019200023F8022084F83D002068211D01F0F8FC16
:10193000012084F8480084F83E0084F83F0084F8D1
:10194000400084F8410084F8420084F8430084F8A1
:10195000440084F8450084F8460084F8470084F881
:101960003D00002010BD000008B500680B4988420A
:1019700012D10B48016841F010010160006800229B
:10198000114600F0100000903620FFF771F9BDE815
:1019900008403620FFF75EB908BD00000010004087
:1019A0004038024070B53F4C05463F492DED068B4F
:1019B0002068401C2060286888420AD1287F0128BE
:1019C00002D0042803D004E001F0D0FA01E001F0D5
:1019D000A7FB3649286888420AD1287F012802D00F
:1019E000042803D004E001F0EDF801E001F0C4F9AF
:1019F0006068401C6060B0F5C87F4FD10020606017
:101A00002B48006AFEF7C7FD00EE900A21F0004166
:101A100010EE900A41EC1A0B2648006AFEF7BBFD57
:101A200009EE100A21F0004119EE100A41EC190BE1
:101A30002148006AFEF7AFFD08EE100A21F00041D0
:101A400018EE100A41EC180B1C48006AFEF7A3FDC3
:101A500000EE100A53EC182B10EE100A21F0004192
:101A6000FEF711FC53EC192BFEF70DFC53EC1A2B6F
:101A7000FEF709FC9FED121B53EC112BFEF7AAFC9D
:101A8000084C41EC180B803CE068FEF784FD53ECF9
:101A9000182BFEF7F8FBFEF78FFDE060BDEC068B20
:101AA00070BD000098000020000C004000040040C1
:101AB0004C0400202804002004040020E00300203F
:101AC000000000000000D03F2DE9F041054690F8ED
:101AD0003C0000260C46012810D0012085F83C006F
:101AE00072B1042A1CD0082A2CD00C2A51D001260D
:101AF000002085F83C003046BDE8F0810220FBE77D
:101B0000E3682868D4E9001201F0A6FD286881691D
:101B100021F00C01816128688169A26811430FE0FE
:101B2000E3682868D4E9001201F0D6FD28688169CD
:101B300021F44061816128688169A26841EA02213B
:101B40008161D5E7D4E900232868217B076A4FF437
:101B5000206C090727F4807707620CEA0222C76924
:101B6000D0F820C027F003071F432CF4206C27F087
:101B7000F00342EA0C0243EA1161C1610262286883
:101B8000C16921F00C01C1612868A268C1691143D3
:101B900029E02868D4E90032E168076A4FF6FF7C43
:101BA0004FF4204E27F4805707620CEA0131C769D1
:101BB000D0F820C00EEA033327F4407747EA022228
:101BC0002CF4204C22F470421143C16143EA0C030F
:101BD00003622868C16921F44061C1612868A16875
:101BE000C26942EA0121C16182E710B5040003D055
:101BF00094F83D0010B107E0012010BD002084F8EA
:101C00003C00204600F022F8022084F83D002068C5
:101C1000211D01F085FB012084F8480084F83E0076
:101C200084F83F0084F8400084F8410084F84200C2
:101C300084F8430084F8440084F8450084F84600A2
:101C400084F8470084F83D00002010BD70B586B0D0
:101C5000044614216846FEF70BFB2F490025236834
:101C600002242E4E10392C4A2D48B3422FD113682E
:101C700043F002031360126802F0020205920A6840
:101C800042F001020A600A6802F0010205920A6845
:101C900042F002020A60096801F002010591402148
:101CA0008DE83200CDE903546946FEF757FE012066
:101CB00069468DE831001B48CDE90354FEF74EFE1E
:101CC00000221D201146FEF7D3FF1D2020E0164EF6
:101CD000B3421FD1136843F008031360126802F087
:101CE000080205920A6842F001020A60096801F0E0
:101CF0000101059105218DE83200CDE903546946C3
:101D0000FEF72CFE002232201146FEF7B1FF3220F2
:101D1000FEF7A0FF06B070BD40380240000400404E
:101D20000000024000040240000C004070B5044670
:101D3000006800250169C943890715D4C168C943F2
:101D4000890711D4EA1E0261012121772068806988
:101D50008007204602D0FFF725FE04E000F0FCF8E3
:101D6000204600F0D7F9257720680169C943490763
:101D700017D4C168C943490713D402216FF0040284
:101D8000026121772068806910F4407F204602D0EC
:101D9000FFF708FE04E000F0DFF8204600F0BAF993
:101DA000257720680169C943090716D4C168C9436A
:101DB000090712D404216FF008020261217720681C
:101DC000C0698007204602D0FFF7ECFD04E000F078
:101DD000C3F8204600F09EF9257720680169C943C1
:101DE000C90617D4C168C943C90613D408216FF0C6
:101DF0001002026121772068C06910F4407F2046FC
:101E000002D0FFF7CFFD04E000F0A6F8204600F076
:101E100081F9257720680169C943C90708D1C168DC
:101E2000C943C90704D1891E0161204600F074F935
:101E300020680169C943090609D4C168C943090674
:101E400005D46FF0800101612046FFF7B7FC2068E0
:101E50000169C943C90509D4C168C943090605D444
:101E60006FF4807101612046FFF7A7FC20680169CB
:101E7000C943490609D4C168C943490605D46FF06E
:101E800040010161204600F073F920680169C943EF
:101E900089060BD4C168C943890607D46FF02001B5
:101EA00001612046BDE87040FFF789BC70BD0000AD
:101EB00070B586B0054614216846FEF7D9F9286842
:101EC0000024214A02251F49012690420FD10868AB
:101ED00040F0100008600868694600F010000590A6
:101EE0004FF4D44000901948CDE9015423E0B0F1FB
:101EF000804F24D1086840F001000860086800F0B5
:101F000001000590086840F0020008600868694612
:101F100000F00200059020200090CDE901540C480B
:101F2000CDE90346FEF71AFD40F608400090094847
:101F30006946CDE90154CDE90346FEF70FFD06B031
:101F400070BD000030380240000001400010024027
:101F50000000024000040240704770B5044690F84B
:101F60003C0000260D4601280BD0012084F83C00DF
:101F70000C2A4AD007DC82B1042A20D0082A06D1D4
:101F800031E0022070BD102A53D0142A63D00126FC
:101F9000002084F83C00304670BD206801F026FA2D
:101FA0002068816941F0080181612068816921F020
:101FB0000401816120682A698169114311E0206868
:101FC00001F04EFA2068816941F400618161206866
:101FD000816921F48061816120682969826942EA0E
:101FE00001218161D4E7206801F076FA2068C16997
:101FF00041F00801C1612068C16921F00401C1619B
:1020000020682A69C169114311E0206801F0A0FA33
:102010002068C16941F40061C1612068C16921F48F
:102020008061C16120682969C26942EA0121C161F8
:10203000AEE7206801F0B8FA2068416D41F0080170
:1020400041652068416D21F00401416520682A69DD
:10205000416D114311E0206801F0D2FA2068416D12
:1020600041F4006141652068416D21F48061416562
:1020700020682969426D42EA0121416588E710B56F
:10208000040003D094F83D0010B107E0012010BD1A
:10209000002084F83C00204600F022F8022084F85A
:1020A0003D002068211D01F03BF9012084F8480023
:1020B00084F83E0084F83F0084F8400084F8410032
:1020C00084F8420084F8430084F8440084F8450012
:1020D00084F8460084F8470084F83D00002010BDD5
:1020E00008B500680949884201D1094804E0B0F107
:1020F000804F09D10648001F016841F001010160CD
:10210000006800F00100009008BD000000000140E0
:10211000443802407047000010B508490446006882
:10212000884201D100F008FF05492068884203D1A8
:10213000BDE8104001F0D4B810BD0000000400401C
:10214000000C004002464FF0000041B1042909D0C4
:1021500008290AD00C2901D11068006C704710685A
:10216000406B70471068806B70471068C06B704799
:1021700070477047704700002DE9F0410268002564
:10218000044640F60F070226D0691168936838426A
:1021900005D183067ED58B067CD5A16E1CE1DFF8C8
:1021A00068C203F0010701EA0C0C57EA0C0C71D06D
:1021B0005FEAC07C0CD05FEAC15C09D54FF0010C2E
:1021C000C2F820C0D4F8842042F00102C4F8842070
:1021D000820709D5DA0707D022681662D4F884206E
:1021E00042F00402C4F8842042070AD5DA0708D076
:1021F000236804221A62D4F8842042F00202C4F850
:10220000842002070CD501F020023A4308D023684D
:1022100008221A62D4F8842042F00802C4F884200C
:1022200002050BD54A0109D523684FF400621A62F2
:10223000D4F8842042F02002C4F88420D4F884200A
:10224000002A36D0800605D5880603D5A16E09B1CF
:10225000204688472168D4F884008968490602D45A
:1022600010F0280F27D0204601F0E8FA2068806897
:1022700040061BD52068083050E8001F21F04001BF
:1022800040E80012002AF5D1606F78B15F4901651E
:10229000606F00E015E0FEF74EFB002809D0606F8C
:1022A000016D00E02046BDE8F04108472046FFF7F9
:1022B00061FFBDE8F0812046FFF75CFFC4F8845061
:1022C000F7E7276E2023012F7DD1C7067FD5CF06E4
:1022D0007DD51020106220688068400643D5616F6C
:1022E000086840680004000CE3D0B4F8582082422B
:1022F000DFD9A4F85A00C869B0F5807F2BD02168D7
:1023000051E8000F20F4807041E80002002AF6D165
:102310002068083050E8001F21F0010140E8001259
:10232000002AF5D12068083050E8001F21F0400154
:1023300040E80012002AF5D1C4F8803025662168F3
:1023400051E8000F20F0100041E80002002AF6D109
:10235000606FFEF7A7FA6666B4F85800B4F85A1032
:10236000401A81B22DE0B4F85800B4F85A10B4F80D
:102370005A20401A81B2002A9BD0002999D02268A5
:1023800052E8000F20F4907042E80007002FF6D1C9
:10239000206800F1080050E8002F22F0010240E818
:1023A0000027002FF4D1C4F880302566A566226886
:1023B00052E8000F20F0100042E80003002BF6D195
:1023C0006666204600E002E0FFF7D3FE71E70206F2
:1023D00006D50A0604D5E16E00297FF463AF68E7ED
:1023E0004006F3D54806F1D52046026852E8001FA2
:1023F00021F0400142E80014002CF6D1C367C56605
:1024000000F077F955E700002001000429380008A2
:1024100010B5040002D0E06F10B107E0012010BD3C
:10242000002084F87800204600F026F82420E06799
:102430002068016821F001010160204601F0C8FA1E
:102440000128ECD0606A10B1204601F067F92068DD
:10245000416821F4904141602068816821F02A019F
:1024600081602068016841F0010101602046BDE8FB
:10247000104001F0B7B900002DE9F04FA7B00546B4
:10248000142121A8FDF7F4FE84216846FDF7F0FE33
:10249000544C0226564903272868103CDFF8448133
:1024A0000025DFF844A18842DFF840B14FF0080969
:1024B00044D10015159500906846FEF741FC08B11F
:1024C000FEF794F9D8F8001041F48011C8F8001014
:1024D000D8F8000000F480102690206840F0040036
:1024E0002060206800F004002690206840F008007A
:1024F0002060206821A923954C4600F00800269012
:102500004FF48050CDE92106CDE924795046FEF7FD
:1025100025FA04202395CDE92106CDE9247421A9CB
:102520005846FEF71BFA002201213520FEF7A0FBDA
:102530003520FEF78FFB27B0BDE8F08F2D4988428C
:1025400026D18015139500906846FEF7F9FB08B177
:10255000FEF74CF9D8F8001041F48021C8F80010BB
:10256000D8F8000000F480202690206840F0080091
:10257000206020680721239500F008002690CDE90F
:1025800024714FF44070CDE9210621A9584625E079
:1025900019498842CFD1C014169500906846FEF7BD
:1025A000CFFB08B1FEF722F90E48001D016841F08B
:1025B00020010160006800F020002690206840F0B3
:1025C000040020602068C021CDE9211600F004003D
:1025D00021A9CDE92590CDE923575046FEF7BEF954
:1025E000A9E700004038024000080240000C024009
:1025F00000500040004800400014014030B4D0F8C2
:102600008030202B02D0022030BC704791B18AB1BB
:102610000023036603685B681B0208D5046854E85E
:10262000003F43F0806344E80035002DF6D130BC14
:1026300001F0E6BA0120E7E70349884202D10348E6
:1026400002F072B87047000020020020B80300209A
:102650002DE9F8430446C06F1F4616460D46202854
:1026600002D00220BDE8F8838DB186B10020C4F805
:1026700084002121E167FEF79BFA8046A068A4F858
:102680005060A4F85260B0F5805F02D003E00120F2
:10269000E8E7206910B12E46002510E000260EE084
:1026A0008021204601F008FBB8B9C6B116F8010B2D
:1026B00021688862B4F85200401EA4F85200B4F8B1
:1026C000520043464FF0000200970028E8D14FF037
:1026D0004001204601F0F0FA38B10320C2E735F896
:1026E000020B2168C0F30800E3E72020E067002028
:1026F000B8E77047FEE7000030B587B014216846A0
:10270000FDF7B6FD2148016841F0800101600168D4
:1027100001F080010591016841F00101016001684B
:1027200001F001010591016841F0020101600168B9
:1027300001F002010591016841F01001016001689A
:1027400001F010010591016841F008010160016884
:1027500001F008010591016841F004010160006881
:1027600000250224694600F0040005908A200294A6
:10277000CDE900050648FEF7F1F806486946CDE9BF
:1027800000450294FEF7EAF807B030BD3038024049
:10279000000002400004024010B596B000246846D4
:1027A0001C21129413941494FDF762FD2C2107A8A8
:1027B000FDF75EFD2E48D7222C4942F20F7380E8C8
:1027C0001600C0E9033444618461FFF758FC08B186
:1027D000FEF70CF8264812A9129413941494FFF7EC
:1027E0003FF808B1FEF702F860206946CDE9000421
:1027F0001F48002202940394049405940694FFF762
:10280000ACFB08B1FDF7F2FF194804226946FFF757
:10281000A4FB08B1FDF7EAFF154808226946FFF757
:102820009CFB08B1FDF7E2FF11480C226946FFF757
:1028300094FB08B1FDF7DAFF4FF4005007940894B9
:10284000099401030A94CDE90B40CDE90E410848F3
:1028500007A90D9410941194FEF7B2FF08B1FDF78B
:10286000C5FF0348FFF724FB16B010BD0000014070
:10287000A400002010B58AB0002468461C210794EB
:1028800008940994FDF7F4FC214842F20F71D72215
:102890004FF08043C0E9024104618461C0E9003225
:1028A000FFF7EDFB08B1FDF7A1FF194807A9079451
:1028B0000994FEF7D5FF08B1FDF798FF602069463F
:1028C000CDE900041248002202940494FFF745FB6E
:1028D00008B1FDF78BFF0E4804226946FFF73DFB68
:1028E00008B1FDF783FF0A4808226946FFF735FB68
:1028F00008B1FDF77BFF06480C226946FFF72DFB68
:1029000008B1FDF773FF0248FFF7D2FA0AB010BD15
:10291000F000002010B588B01C4800241A496B2232
:102920004FF6FF7300940194029403940494059469
:10293000069480E81600C0E903348461FFF755F976
:1029400008B1FDF753FF1148694600940294FEF761
:1029500087FF08B1FDF74AFF0120002203A9CDE956
:1029600003400A4805940694FFF7AEF808B1FDF756
:102970003DFF0648082203A9FFF7A6F8002801D06A
:10298000FDF734FF08B010BD000400403C010020FA
:1029900010B588B01C4800241A496B224FF6FF730B
:1029A000009401940294039404940594069480E89E
:1029B0001600C0E903348461FFF717F908B1FDF789
:1029C00015FF1148694600940294FEF749FF08B1CB
:1029D000FDF70CFF0120002203A9CDE903400A48BE
:1029E00005940694FFF770F808B1FDF7FFFE06485E
:1029F000082203A9FFF768F8002801D0FDF7F6FECA
:102A000008B010BD000C0040880100203EB5104801
:102A1000002442F210720D4D6B230094019480212A
:102A200002948161C0E90242C0E90053FEF76AFFE7
:102A300008B1FDF7DBFE0648694600940294FEF7F4
:102A40000FFF002801D0FDF7D1FE3EBD0010004071
:102A5000D40100200D48002110B50B4C0C224FF47E
:102A6000E1330460C0E90131C160C0E90412816151
:102A7000C16101624162FFF7CBFC002803D0BDE8D1
:102A80001040FDF7B3BE10BD0050004020020020F2
:102A90000D48002110B50B4C0C224FF4E1330460BB
:102AA000C0E90131C160C0E904128161C161016204
:102AB0004162FFF7ADFC002803D0BDE81040FDF7F0
:102AC00095BE10BD00480040A80200200D4800211E
:102AD00010B50B4C0C224FF4E1330460C0E9013116
:102AE000C160C0E904128161C16101624162FFF706
:102AF0008FFC002803D0BDE81040FDF777BE10BD65
:102B00000014014030030020FEE7FEE770477047E5
:102B1000FEF754B830B593B030216846FDF7A8FBF6
:102B200014210CA8FDF7A4FB2048016841F0805156
:102B30000160006800F0805011901D48016841F468
:102B400040410160006800250DF1200C0224009432
:102B500000F4404011900822D823CDE90645102109
:102B60008CE81C0001200B94CDE903016846FEF7B8
:102B70004FFC08B172B6FEE7FEF7ACF808B172B6CA
:102B8000FEE74FF480524FF4A0510F20CDE90F1211
:102B90000CAA072182E831000CA8FEF74FFB0028A1
:102BA00001D072B6FEE713B030BD000040380240DD
:102BB000007000400248016841F4700101607047F4
:102BC00088ED00E02DE9F041674D0127674C0026B4
:102BD000AA79D4E904012AB3FFF7B4FAE8644CF205
:102BE0005031E38B002B63D0012B4FF6FF7267D07F
:102BF000C3EB034CAB6C95F907E0D21A6244104466
:102C0000A0F57F40FF38B1FBF0F000FB0EF06865E7
:102C1000D5E9140281182965286E401C286604280D
:102C200059D078E0E683FFF78DFAA864AF71A18BE5
:102C3000A069FDF7B7FFC0B1EF716069C0B10428AA
:102C40001CD0082820690068016A1DD021F42041A9
:102C500001626069D8B104281FD008282069006883
:102C6000016A22D041F400511CE0FF20E871E4E742
:102C700020690068016A21F00A01E9E7206900681B
:102C8000016A21F0A001E3E721F42061E0E7206977
:102C90000068016A41F0020104E020690068016AED
:102CA00041F020010162BDE8F08141F40071F9E7D3
:102CB000AB6C95F90720C01AB1FBF0F05043A6E7C2
:102CC000D5F848C095F90730A2EB0C021044B1FBCF
:102CD000F0F058439BE72E66A86DE8652B7A63B346
:102CE000891A0144CA1701EB92718910A965084439
:102CF000FDF751FC9FED1E1B00EE100A53EC112B4B
:102D000010EE100A21F00041FDF788FC01D8A86DF3
:102D100020622E662E656069B8B104281BD0082891
:102D200020690068016A1CD021F4204101622069F9
:102D30000068016A0162AE71B5E70144CA1701EB90
:102D400092718910A9652F72D1E720690068016A24
:102D500021F00A01EAE720690068016A21F0A00178
:102D6000E4E721F42061E1E71800002028040020B6
:102D700000000000000014402DE9F041674D0127DC
:102D8000674C00266A7AD4E904012AB3FFF7DAF91E
:102D9000A8664CF25031E38B002B63D0012B4FF629
:102DA000FF7267D0C3EB034C6B6E95F90AE0D21A41
:102DB00062441044A0F57F40FF38B1FBF0F000FB07
:102DC0000EF02867D5E91B028118E966E86F401C00
:102DD000E867042859D078E0E683FFF7B3F968661E
:102DE0006F72A18BA069FDF7DDFEC0B1AF726069A3
:102DF000C0B104281CD0082820690068016A1DD0D1
:102E000021F4204101626069D8B104281FD008284C
:102E100020690068016A22D041F400511CE0FF20C3
:102E2000A872E4E720690068016A21F00A01E9E775
:102E300020690068016A21F0A001E3E721F4206124
:102E4000E0E720690068016A41F0020104E02069BE
:102E50000068016A41F020010162BDE8F08141F49F
:102E60000071F9E76B6E95F90A20C01AB1FBF0F01A
:102E70005043A6E7D5F864C095F90A30A2EB0C02DE
:102E80001044B1FBF0F058439BE7EE67686FA8670A
:102E9000EB7A63B3891A0144CA1701EB9271891066
:102EA00069670844FDF777FB9FED1E1B00EE100AD3
:102EB00053EC112B10EE100A21F00041FDF7AEFB90
:102EC00001D8686F2062EE67EE666069B8B10428C9
:102ED0001BD0082820690068016A1CD021F4204119
:102EE000016220690068016A01626E72B5E70144FF
:102EF000CA1701EB927189106967EF72D1E72069F7
:102F00000068016A21F00A01EAE720690068016AA5
:102F100021F0A001E4E721F42061E1E7180000209E
:102F20004C04002000000000000014400148FEF79F
:102F3000FDBE00003C0100200A4800214FF6FF734F
:102F4000C28B9A4202D2521CC28301E0C183016249
:102F50000548C28B9A4202D2521CC2837047C18379
:102F600001627047280400204C0400202DE9F04144
:102F7000674D0127674C00262A78D4E904012AB35B
:102F8000FFF7E0F868614CF25031E38B002B63D01F
:102F9000012B4FF6FF7267D0C3EB034C2B6995F9F9
:102FA00001E0D21A62441044A0F57F40FF38B1FB23
:102FB000F0F000FB0EF0E861D5E906028118A96186
:102FC000A86A401CA862042859D078E0E683FFF77D
:102FD000B9F828612F70A18BA069FDF7E3FDC8B196
:102FE000FF2068706069B8B104281BD008282069E8
:102FF0000068016A1CD021F4204101626069D0B1EF
:1030000004281ED0082820690068016A21D041F4F4
:1030100000511BE06F70E5E720690068016A21F04C
:103020000A01EAE720690068016A21F0A001E4E7EB
:1030300021F42061E1E720690068016A41F00201A2
:1030400004E020690068016A41F020010162BDE8E6
:10305000F08141F40071F9E72B6995F90120C01A5C
:10306000B1FBF0F05043A6E7D5F810C095F9013058
:10307000A2EB0C021044B1FBF0F058439BE7AE62A8
:10308000286A6862AB7863B3891A0144CA1701EBF6
:103090009271891029620844FDF77DFA9FED1E1B8D
:1030A00000EE100A53EC112B10EE100A21F0004133
:1030B000FDF7B4FA01D8286A2062AE62AE61606999
:1030C000B8B104281BD0082820690068016A1CD008
:1030D00021F42041016220690068016A01622E70BA
:1030E000B5E70144CA1701EB927189102962AF70EC
:1030F000D1E720690068016A21F00A01EAE7206946
:103100000068016A21F0A001E4E721F42061E1E711
:1031100018000020E0030020000000000000144020
:103120002DE9F041674D0127674C0026EA78D4E984
:1031300004012AB3FFF706F828634CF25031E38B01
:10314000002B63D0012B4FF6FF7267D0C3EB034C0B
:10315000EB6A95F904E0D21A62441044A0F57F406E
:10316000FF38B1FBF0F000FB0EF0A863D5E90D02CB
:1031700081186963686C401C6864042859D078E041
:10318000E683FEF7DFFFE862EF70A18BA069FDF731
:1031900009FDC8B1FF2028716069B8B104281BD0AF
:1031A000082820690068016A1CD021F420410162CE
:1031B0006069D0B104281ED0082820690068016A1F
:1031C00021D041F400511BE02F71E5E72069006830
:1031D000016A21F00A01EAE720690068016A21F02A
:1031E000A001E4E721F42061E1E720690068016AB9
:1031F00041F0020104E020690068016A41F0200109
:103200000162BDE8F08141F40071F9E7EB6A95F9DC
:103210000420C01AB1FBF0F05043A6E7D5F82CC04B
:1032200095F90430A2EB0C021044B1FBF0F05843C6
:103230009BE76E64E86B28646B7963B3891A014479
:10324000CA1701EB92718910E9630844FDF7A3F9ED
:103250009FED1E1B00EE100A53EC112B10EE100A0E
:1032600021F00041FDF7DAF901D8E86B20626E64C5
:103270006E636069B8B104281BD008282069006813
:10328000016A1CD021F42041016220690068016AB2
:103290000162EE70B5E70144CA1701EB9271891023
:1032A000E9636F71D1E720690068016A21F00A01C2
:1032B000EAE720690068016A21F0A001E4E721F44F
:1032C0002061E1E718000020040400200000000055
:1032D000000014400148FEF729BD000088010020CD
:1032E0000A4800214FF6FF73C28B9A4202D2521C49
:1032F000C28301E0C18301620548C28B9A4202D2B7
:10330000521CC2837047C18301627047E0030020F2
:10331000040400200148FEF709BD0000D40100208C
:10332000F0B5274B4FF0804E264D02689842264E4E
:10333000264F274C09D0704507D0A84205D0B0428F
:1033400003D0B84201D0A04205D1D1F804C022F088
:1033500070024CEA020298421BD0704519D0A84274
:1033600017D0B04215D0B84213D0A04211D0194D99
:10337000A8420ED0184DA8420BD0184DA84208D034
:10338000174DA84205D0174DA84202D0164DA842AD
:1033900003D1CD6822F440722A434D6922F08002A5
:1033A0002A43026098428A68C2620A68826201D037
:1033B000A04201D10969016301214161F0BD000012
:1033C000000001400004004000080040000C0040E4
:1033D0000004014000400140004401400048014019
:1033E00000180040001C004000200040F0B5026AB8
:1033F000DFF860C0184F22F00102DFF860E00262DF
:10340000066A4268836926F002060D68B8428C6835
:1034100003EA0C0323F0030344EA060445EA030528
:1034200001D0704505D1CB6824F00804234323F074
:103430000404B84201D0704505D122F44076D1E9A8
:10344000053233431A43426085614968416304622F
:10345000F0BD00008FFFFEFF0000014000040140AE
:10346000F0B5026A194E1A4C22F01002DFF864E03F
:103470000262056A4368826925F02005D1F808C018
:10348000A0420F6802EA060222F4407245EA0C15D7
:1034900042EA072201D0704506D1CE6825F08005AA
:1034A00045EA061525F04005A04201D0704507D138
:1034B000D1E9054623F4406343EA840343EA8603E3
:1034C00043608261496881630562F0BDFF8FFFFE42
:1034D0000000014000040140F0B5026A194F1A4E85
:1034E00022F48072DFF864E00262056A4368C26910
:1034F00025F40075D1F808C0B0420C6802EA070252
:1035000022F0030245EA0C2544EA020401D070458A
:1035100006D1CF6825F4006242EA072222F48065D2
:10352000B04201D0704507D123F44052D1E90536AD
:1035300042EA031242EA06134360C4614968C16368
:103540000562F0BD8FFFFEFF000001400004014056
:10355000F0B5026A124B114F22F480529842026277
:10356000046A4268C36924F400548E680D6803EA53
:10357000070323F4407344EA063443EA052302D0E8
:10358000084DA84204D14D6922F4804242EA8512D6
:103590004260C361496801640462F0BDFF8FFFFEB1
:1035A0000000014000040140F0B5026ADFF844C0A9
:1035B00022F480320262056A4268446D25F40035C7
:1035C0000E8960450C4F0B6804EA070445EA06457E
:1035D00043EA040302D0094CA04204D14C6922F40E
:1035E000803242EA0422426043654968816505628F
:1035F000F0BD0000000001408FFFFEFF000401400D
:10360000F0B5026ADFF844C022F480120262046A54
:103610004268436D24F400140E8960450C4F0D6818
:1036200003EA070344EA065443EA052302D0094D9E
:10363000A84204D14D6922F4802242EA85224260E8
:1036400043654968C1650462F0BD000000000140A7
:10365000FF8FFFFE0004014070B5046A174D24F08F
:1036600001040462A8428469056A14D0B0F1804F55
:1036700011D0134EB0420ED0124EB0420BD0124EAB
:10368000B04208D0114EB04205D0114EB04202D027
:10369000104EB04203D124F00304144301E044F07F
:1036A00001041A0724F0F00325F00A0401F00A01CE
:1036B000214343EA12628261016270BD0000014051
:1036C0000004004000080040000C004000040140DD
:1036D000004001400018004070B5056AA0244FF674
:1036E000FF7606EA033325F01005056204EA0111AE
:1036F0008469056A24F4407425F0A00544EA022296
:10370000294322F4704213438361016270BD0000BB
:103710000148FEF731BD00002002002090F824107F
:10372000C90706D00168836A4A6822F400321A4346
:103730004A6090F82410890706D50168C36A4A6870
:1037400022F480321A434A6090F82410490706D5C3
:103750000168036B4A6822F480221A434A6090F899
:103760002410090706D50168436B4A6822F4004219
:103770001A434A6090F82410C90606D50168836B85
:103780008A6822F480521A438A6090F824108906CD
:1037900006D50168C36B8A6822F400521A438A6016
:1037A00090F82410490611D50168036C4A6822F488
:1037B00080121A434A60016CB1F5801F06D101687E
:1037C000436C4A6822F4C0021A434A6090F82410FD
:1037D000090606D50168826C486820F40020104371
:1037E0004860704738B500250446C0F88450FDF79E
:1037F000DFF903462068006800070BD56FF07E40B4
:103800000090002220464FF4001100F055FA08B154
:10381000032038BD2020E067C4F880002566656677
:10382000002084F8785038BD10B5806B0021A0F8D6
:103830005A10A0F85210FEF79DFC10BD016851E827
:10384000002F22F4907241E80023002BF6D101688A
:10385000083151E8002F22F0010241E80023002B3B
:10386000F5D1016E012908D1026852E8001F21F04C
:10387000100142E80013002BF6D100212022C0F8ED
:10388000802001668166704710B5D0F88010B0F8CE
:103890005C202229016804D0886940F00800886112
:1038A00010BD496A436D11401980416D891C416505
:1038B000B0F85A10491EA0F85A10B0F85A10002952
:1038C000EED1016851E8002F22F4907241E8002304
:1038D000002BF6D10168083151E8002F22F00102D7
:1038E00041E80023002BF5D100212022C0F88020E0
:1038F0004166026E8166012A02D0FEF79DFE10BD70
:103900000166026852E8001F21F0100142E800132E
:10391000002BF6D10168CA69D243D20601D4102225
:103920000A62B0F85810FEF724FC10BD10B5D0F8AC
:103930008010B0F85C202229016804D0886940F02A
:103940000800886110BD496A436D11401970416DCE
:10395000491C4165B0F85A10491EA0F85A10B0F839
:103960005A100029EED1026852E8001F21F490712C
:1039700042E80013002BF6D10168083151E8002F0E
:1039800022F0010241E80023002BF5D10021202282
:10399000C0F880204166026E8166012A02D0FEF7DF
:1039A0004BFE10BD0166026852E8001F21F01001B5
:1039B00042E80013002BF6D10168CA69D243D2064F
:1039C00001D410220A62B0F85810FEF7D2FB10BDE5
:1039D0002DE9F04104460368C2698168D4E90450C6
:1039E000DFF8F0C17C4E29431F68002510437B4A55
:1039F000014307EA0C070F431F604FF400402168A2
:103A0000E7684B6823F440533B434B602768A36946
:103A1000216AD7F808C019432CF430630B43BB600C
:103A20002168B1420AD1116811F0030152D0012975
:103A30007CD0022971D003296ED184E0684B994271
:103A40000AD1116811F00C0167D0042965D008294A
:103A500075D00C2960D176E0624B99420AD1116889
:103A600011F0300159D010296BD0202967D03029AE
:103A700052D168E05C4B99420AD1116811F0C00143
:103A80004BD040295DD0802959D0C02944D15AE07B
:103A9000564B99420DD1116811F440713DD0B1F5EA
:103AA000807F4ED0B1F5007F49D0B1F5407F33D152
:103AB00049E04F4B99420FD1116811F4406109D090
:103AC000B1F5806F3DD0B1F5006F38D0B1F5406FE2
:103AD00022D138E0012120E0464B99420DD11168F6
:103AE00011F4405119D0B1F5805F2AD0B1F5005FD3
:103AF00025D0B1F5405F0FD125E03F4B99420BD166
:103B0000116811F4404108D0B1F5804F19D08142BD
:103B100015D0B1F5404F16D01021E369374A4FF662
:103B2000EF7683422ED1092949D201E009E006E06F
:103B3000DFE801F00B0E1145134545451600022143
:103B4000EBE70421E9E70821E7E7FDF70FFC06E0D2
:103B5000FDF71CFC03E0104602E0FDF727FC78B3FC
:103B60006168400000EB5100B0FBF1F0A0F11001E2
:103B7000B14224D84FF6F0732168C0F342021840D6
:103B8000104320E009291AD2DFE801F005080B19DB
:103B90000D1919191000FDF7E9FB06E0FDF7F6FB1A
:103BA00003E0104602E0FDF701FC48B1616800EB5C
:103BB0005100B0FBF1F0A0F11001B14201D9012593
:103BC00002E0216880B2C8600020A066E066284656
:103BD000BDE8F081F369FFEF00100140903802402A
:103BE0000044004000480040004C004000500040AD
:103BF0000014014000780040007C00400024F400E4
:103C000030B58368002441654FF48055A0F85820F2
:103C1000AB42A0F85A204FF0FF01846604D102693C
:103C200072BB40F2FF112BE04FF07F0233B3B3F1D0
:103C3000805F28D0A0F85C402221C0F88440C0F802
:103C400080100168083151E8002F42F0010241E87C
:103C50000023002BF5D18168A94201D10169C9B1C6
:103C6000134902698166BAB1016851E8002F42F434
:103C7000907241E80023002BF6D116E0036933B9B6
:103C8000A0F85C10D8E7016909B13F21F8E7A0F876
:103C90005C20D1E707498166026852E8001F41F0C5
:103CA000200142E80013002BF6D1002030BD0000B7
:103CB0002D390008893800082DE9F0479A46174643
:103CC0000E460446089D4FF000094FF020084CE0D6
:103CD000681C4AD0FCF76CFFA0EB0A00A8422AD867
:103CE0004DB32068016849073FD5C069C04300054E
:103CF0003BD421684FF400600862216851E8000F4E
:103D000020F4D07041E80002002AF6D12068083083
:103D100050E8001F21F0010140E80012002AF5D10F
:103D2000C4F87C8084F87890C4F88080C4F88480DB
:103D30000320BDE8F087206850E8001F21F4D0710F
:103D400040E80012002AF6D12068083050E8001F31
:103D500021F0010140E80012002AF5D1C4F87C806E
:103D600084F87890C4F88080E2E72068C06936EA79
:103D7000000004D00020B842AAD00020D9E70120DA
:103D8000F9E7FEE70FB4054B10B503A9044A029802
:103D900000F0EAF810BC5DF814FB0000994600083A
:103DA000A0000020090700284FEA116104DB00F1A0
:103DB000E02080F80014704700F00F0000F1E020D0
:103DC00080F8141D704702E008C8121F08C1002ABD
:103DD000FAD170477047002001E001C1121F002A8C
:103DE000FBD170472DE9FF5F82B00021DDE904308F
:103DF000020DDDF840B0034318D044F61050A2F293
:103E0000FF3242431514119801281FD0A5EB0B0077
:103E1000401C5FEA000A4FF000064E4FDFF8389171
:103E2000B046504615D5CAF1000413E0119801249C
:103E30004AA3012801D16FEA0B010298119AC0E947
:103E40000031C0E9024206B0BDE8F09FCBF10000AE
:103E5000DFE704460021404A491842EB0450CDE90F
:103E6000001012E0E00707D032463B464046494684
:103E7000FCF7B0FA8046894632463B461046194662
:103E8000FCF7A8FA06460F466410002CEAD1DDE9DB
:103E90000401DDE90023BAF1000F06DAFCF79AFA13
:103EA00042464B46FCF796FA05E0FCF705FB424616
:103EB0004B46FCF701FB04460E460022284BFCF75C
:103EC000ADFB03D84FF0FF30014607E00022254B41
:103ED00020463146FCF7D7F9FCF75CFC102409E0DA
:103EE000002C0ADB0A220023FCF78AF9039B3032FC
:103EF0001A55641E50EA0102F2D1641C039AC4F1FF
:103F000011031444119A012A03D0012208430DD150
:103F10000AE0084304D000204FF0110B119072E723
:103F2000A3EB0B056D1E0DE05B4504DD4FF00002B9
:103F300005F1010504E003DA4FF00002A5F10105E7
:103F4000002AECD002981199C0E90231C0E900457D
:103F500079E70000000014400000F03F300000004E
:103F60000000F0430000E03F2DE9FF4F95B09B4675
:103F70008946064600250FE2252877D100242746EA
:103F8000F84A0121059400E0044316F8013F203B64
:103F900001FA03F01042F7D130782A2811D06FF0DF
:103FA0002F033078A0F13002092A16D8059A44F080
:103FB000020402EB820203EB42021044761C0590DD
:103FC000EFE759F8042B0592002A03DA504244F433
:103FD0000054059044F00204761C30782E2816D147
:103FE00016F8010F44F004042A280DD06FF02F02B8
:103FF0003078A0F13003092B09D807EB870302EBD7
:104000004303C718761CF3E759F8047B761C307815
:104010006C280FD006DC4C2817D068280DD06A28F1
:1040200014D104E0742810D07A280FD10DE044F4A4
:1040300000140AE044F4801401E044F4401472785F
:10404000824202D104F58014761C761C30786628F2
:104050000BD013DC582877D009DC002875D0452810
:10406000F6D04628F4D047281AD19DE118E06328FD
:1040700035D0642879D0652812D195E1702873D0A5
:1040800008DC6728F1D069286FD06E280DD06F2822
:1040900006D1B5E073282CD0752875D0782874D057
:1040A0005A46179990476D1C75E1C4F302500228D7
:1040B00009D003280DD0D9F8001004280DD00D60C8
:1040C00009F1040967E1D9F80010EA17C1E90052C3
:1040D000F6E7D9F800100D80F2E70D70F0E719F857
:1040E000041B8DF8001000208DF80100EA46012025
:1040F00003E059F804AB4FF0FF3061074FF00001C7
:1041000002D40DE008F101018846B9420FDA80457A
:10411000F8DB1AF808100029F4D108E008F10101D1
:1041200088468142FADB1AF808100029F6D1059872
:104130005B46A0EB080721463846179A00F094FA30
:10414000284400EB080507E04DE029E10DE01AF8EE
:10415000010B5A4617999047B8F10108F7D25B4610
:1041600021463846179A13E142E00A220092C4F32E
:1041700002524FF0000A022A08D059F804CB032A51
:104180004FEAEC710AD00DE029E02AE009F10701BD
:1041900021F00702F2E802C1914609E00FFA8CFC17
:1041A0004FEAEC71042A03D14FFA8CFC4FEAEC7110
:1041B000002907DA0A460021DCF1000C61EB02015C
:1041C0002D2202E0220504D52B228DF804200122A5
:1041D00003E0E20701D02022F7E7904659E00A21E8
:1041E00002E010220DE010214FF0000A00910BE0D8
:1041F00010224FF0000A44F004040827009203E064
:1042000008224FF0000A0092C4F30252022A05D09D
:1042100059F804CB0021032A08D009E009F107016D
:1042200021F00702F2E802C1914605E01FFA8CFC7A
:10423000042A01D10CF0FF0C4FF00008220728D50A
:10424000702806D0009B83F0100353EA0A0305D0C0
:104250000EE040228DF80420012208E05CEA010211
:1042600006D030228DF804208DF8050002229046F9
:10427000009B83F0080353EA0A030AD15CEA0102B7
:1042800001D1620705D530228DF804204FF00108D6
:104290007F1E582804D034A003900EA802900DE091
:1042A00036A0F9E753466046009AFBF7A9FF84461B
:1042B0000398825C0298401E029002705CEA010042
:1042C000F0D1029806A9081A00F1200A600702D569
:1042D00024F4803400E00127574502DDA7EB0A00F3
:1042E00000E0002000EB0A01009005984144401ACC
:1042F0000590E00306D45B462146179A059800F026
:10430000B3F90544002706E001A85A46C05D179995
:1043100090476D1C7F1C4745F6DBE0030CD55B46E0
:104320002146179A059800F09FF9054404E03020D3
:104330005A46179990476D1C0099481E0090002915
:10434000F5DC08E0029802995A460078491C02916F
:10435000179990476D1CBAF10001AAF1010AF1DC2E
:1043600065E1000009280100303132333435363739
:1043700038396162636465660000000030313233B1
:104380003435363738394142434445460000000051
:1043900000F058F90544761C307800287FF4ECAD25
:1043A00019B02846BDE8F08F620700D4062709F14E
:1043B000070222F0070CFCE80223E14603F0004864
:1043C0005FEA080C02D00FF2702C0DE05FEA045C8B
:1043D00002D50FF2682C07E05FEAC47C02D00FF22E
:1043E000602C01E0AFF2700C4FF0FF3823F0004377
:1043F000CDF850C065280CD006DC452809D04628E9
:104400001DD047283DD13DE0662818D067287ED1D1
:1044100038E00021112F01DB112000E0781CCDE9EC
:10442000000106A90EA8FFF7DDFCDDE90F010E9AD9
:1044300003910021009207F1010A04914DE04FF031
:1044400000400097CDE9011006A90EA8FFF7CAFCAD
:10445000DDE90F0203920E9B11990022DDF80CA0FA
:104460000093049211B9791C00EB010AB7EB0A0022
:1044700004D4C0F1FF3007F1010A0490AAEB070051
:10448000019044E0012F00DA01270021112F01DD06
:10449000112000E03846CDE9000106A90EA8FFF77B
:1044A000A1FCDDE90F010E9A039100210491009215
:1044B000BA4621070CD40399514500DA8A46BAF16D
:1044C000010F05DD009AAAF10101515C302908D0E5
:1044D000B84202DA10F1040F06DA0121CDE9011029
:1044E00015E0AAF10101E9E7002805DC049901447F
:1044F0000491AAEB000102E0411C514500DD8A460F
:104500000499401A401C01904FF00040029020078F
:1045100004D40198504501DBCDF8048000208DF8CB
:104520004F0002980DF14F07B0F1004F25D02B201E
:104530000E9002984FF0020800280CDA40420290D8
:104540002D200E9007E00A210298FCF77FF8303109
:10455000029007F8011DB8F10001A8F10108F2DC92
:1045600002980028EFD1791E0E980870307800F07C
:10457000200040F0450007F8020D12A8C01B00F112
:1045800007081498007800B1012000EB0A01019897
:1045900001EBE07105984144401A401E0590E0038C
:1045A00006D45B462146179A059800F05DF805444D
:1045B0001498007818B15A46179990476D1CE0037B
:1045C00024D55B462146179A059800F04DF805441E
:1045D0001CE00498002807DBDDE90301884203DDC5
:1045E0000098405C179901E0179930205A4690478F
:1045F000049805F10105401C04900198401E0190AB
:1046000004D12E205A46179990476D1CBAF100012B
:10461000AAF1010ADDDC05E017F8010B5A461799EB
:1046200090476D1CB8F10001A8F10108F4DC5B466D
:104630002146179A0598ABE62D0000002B000000DC
:10464000200000002DE9F041044600251E461746D3
:10465000880404D405E039462020B0476D1C641E50
:10466000F9D52846BDE8F0812DE9F0410446002542
:104670001E469046C80301D5302700E02027880455
:1046800004D505E041463846B0476D1C641EF9D597
:104690002846BDE8F081000013B5044801224FF61A
:1046A000FF736946FDF7D4FF00981CBDA8020020E7
:1046B000FCF78CFAFEF72EFAFEF71EF8FEF76CF800
:1046C000FEF7D8F8FEF726F9FEF762F9FEF79EF935
:1046D000FEF7DEF9FEF7BEF9FEF7F8F90F4800F035
:1046E0003BF80F4CFF204FF6FF7501222B46214669
:1046F00020700C48FDF7ACFFAA2020700948012269
:104700002B462146FDF7A4FF6320207005480122B7
:104710002B462146FDF79CFFFEE70000B803002072
:10472000100000202002002010B504460848C07880
:1047300000F01EF8012802D10648FCF759F8044998
:1047400001222068BDE81040C91CFDF757BF0000DA
:1047500011000020D4030020014603480122086014
:104760000249FDF74BBF000020020020140000208A
:104770001C4910B51C4B0C784CB10022012C0DD0FB
:10478000022C15D0032C21D04A708A7008E05528DD
:1047900002D101220A701870487021E0532801D01C
:1047A0000A701DE0587002220A7048785330F3E70F
:1047B0008A781344541CE2B2D870082A8A704B7865
:1047C000184448700CD10320087009E04C788442EA
:1047D00003D1DC7201200A7010BD0A704A708A7021
:1047E000002010BD11000020D403002000000000B4
:1047F0000000000001020304060708090000000091
:10480000010203042448000800000020A400000066
:10481000C63D0008C8480008A4000020CC070000DE
:10482000D63D00080100000010000000000000005C
:104830000024F40000000000000000000000000060
:104840000000000000000000000000000000000068
:104850000000000000000000000000000000000058
:104860000000000000000000000000000000000048
:104870000000000000000000000000000000000038
:104880000000000000000000000000000000000028
:104890000000000000000000000000000000000018
:1048A0000000000000000000000000000000000008
:1048B00000000000000000000000000000000000F8
:0848C0000000000000000000F0
:04000005080001C925
:00000001FF
